:020000041000EA
:1000000000B5324B212058609868022188439860DF
:10001000D860186158612E4B002199600221596106
:100020000121F02299502B49196001219960352056
:1000300000F044F80222904214D00621196600F024
:1000400034F8196E01211966002018661A6600F04E
:100050002CF8196E196E196E052000F02FF8012189
:100060000842F9D1002199601B49196000215960AB
:100070001A491B48016001219960EB211966A021F2
:10008000196600F012F800219960164914480160C1
:100090000121996001BC002800D000471248134993
:1000A000086003C880F30888084703B5996A0420EC
:1000B0000142FBD001200142F8D103BD02B5186610
:1000C0001866FFF7F2FF186E186E02BD00000240BE
:1000D000000000180000070000035F00212200005C
:1000E000F4000018222000A00001001008ED00E03C
:1000F00000000000000000000000000074B24E7A12
:1001000000200420F7010010C3010010C5010010F9
:10011000C1010010C1010010C1010010C101001097
:10012000C1010010C1010010C1010010C701001081
:10013000C1010010C1010010C9010010CB01001065
:10014000CD010010CD010010CD010010CD01001037
:10015000CD010010CD010010CD010010CD01001027
:10016000CD010010CD010010CD010010CD01001017
:10017000CD010010CD010010CD010010CD01001007
:10018000CD010010CD010010CD010010CD010010F7
:10019000CD010010CD010010CD010010CD010010E7
:1001A000CD010010CD010010CD010010CD010010D7
:1001B000CD010010CD010010CD010010CD010010C7
:1001C00000BE00BE00BE00BE00BE00BEEFF3058054
:1001D000103800BEF2EB8871289C0310489C031075
:1001E0003402001090A31AE700201F49086006C8D7
:1001F00081F3088810471D48006800282FD10DA4FE
:100200000ECC002902D000F012F8F9E71849194A7B
:10021000002000E001C19142FCD1174988471749ED
:1002200088471749884700BEFDE701C901C29A42C5
:10023000FBD37047489C0310C0000020DC0F002057
:1002400064AB0310000004200000042064AB031022
:10025000001004200010042000000000704709482E
:1002600030F050FC0047000008ED00E0000000D036
:10027000E00F00200CEB0020650903106D03001057
:10028000590A03105756000006005250ABB3605392
:10029000444E031006005250861C0302544E0310B5
:1002A000060052505422A29D604E03100500525089
:1002B000DE65F46864AB0310F8B5C046064807492C
:1002C000091A8B10C90FC91810B5491003D0044B77
:1002D000002B00D0984710BDDC0F0020DC0F002061
:1002E00000000000054B10B5002B03D00449054861
:1002F00000E000BFFFF7E2FF10BDC04600000000B5
:10030000E428002068480310F8B5CE46474680B57B
:10031000150002228B5E8146984606228B5E0E00F7
:10032000984519DC04228B5E0022B45E9C4213DCEB
:100330004346DFB22A78E0B239002EF06FFE042285
:10034000B35E01340135A342F4DA0122944606215A
:10035000725EE0449045E7DD2EF0A8FC484620F0B0
:10036000FFF9C0BCB946B046F8BDC046F8B5CE46A8
:10037000474680B531F036FF2EF06AFC2EF0EEFCD9
:1003800001F0A6FBA023424D002242492800DB00D9
:1003900020F0F0F8404C200020F0CAF83F4B20003D
:1003A00023603F4BE560636120F0F2F820F09AF99A
:1003B00000F08AF82AF070FA04003A492AF07AFA32
:1003C000002300220921200002F062FB200007F038
:1003D000B9FE20F087F900F077F801F0A5FB81461F
:1003E0001422142102F08AFA00220021484607F064
:1003F0009DFD002248462C4907F0B0FD0024002551
:10040000052020F0D3F923F033FD2000290030F03F
:10041000CFFE06000F002000290030F0DFFE002292
:10042000224B30F040FE0022214B30F015FE30F020
:1004300085FE03B2984600221C4B3000390030F094
:1004400032FE1C4B002230F007FE30F077FE4246B1
:1004500001B2484602F0EEF920002900164A174B77
:1004600030F0FAFD164A174B04000D0030F05EFE26
:10047000002807D020002900114A124B30F0E3FD7C
:1004800004000D002EF012FC05202FF0A5FCB7E7AC
:1004900004240020001E0020B02300208000400023
:1004A0000903001068480310FF7F0000000034407B
:1004B00000003940008048409A9999999999A93F3C
:1004C000182D4454FB21194010B5002801D00069B3
:1004D00010BD20F007F90028F9D10020F8E7C04648
:1004E00010B5002801D0406910BD20F0FBF80028AD
:1004F000F9D10020F8E7C04610B5002801D0C06946
:1005000010BD20F0EFF80028F9D10020F8E7C04630
:1005100010B5002801D0006A10BD20F0E3F80028D3
:10052000F9D10020F8E7C04610B5002801D0806856
:1005300010BD20F0D7F8FAE710B5002806D0AA239E
:100540005B00C358D817C01AC00F10BD20F0CAF8FE
:100550000028F4D10020F8E7F8B54546DE465746B6
:100560004E46E0B5050000F0CDFB00280BD000683A
:100570008368002B01D0297A98472B7E9A0700D5F3
:10058000A9E0DB0751D468688268002A00D19EE0A8
:10059000937E9B0600D19AE0D368002B00D1AFE098
:1005A00002218A46013988467F3100248B4619682A
:1005B000002904D008269E571F7A002E0BDB013439
:1005C000937E9B069B0EA3421DD96100D368091937
:1005D00089005B18EBE7802F04D05E46B7432E7A84
:1005E000B742ECD15B682800EB60884752462B7E0F
:1005F0001A4200D06FE042461A4216D168680134B0
:100600008268002ADCD10368002B03D116E01B6846
:10061000002B13D01C69002CF9D0002218002900EF
:10062000EA60A0472B7EDB0706D50020F0BCBB4666
:10063000B246A946A046F8BD68688268002A33D051
:10064000937E9B0630D0D368002B2DD002218946A3
:100650000139002488461968002909D008269E57C8
:100660001F7A002E04DB002F0ED02E7ABE420BD054
:100670000134937E9B069B0EA34215D96300D1687B
:100680001B199B00CB18E6E75B682800EB608847E6
:100690004A462B7E1A421ED142461A42C5D168688C
:1006A00001348268002AE4D14368002B13D02A7EEB
:1006B000520710D42A7A233A012A0ED86B602800F8
:1006C000FFF74AFF013843425841C0B2AEE7036822
:1006D000002B9FD1E8E70120A8E78021C90101F0A4
:1006E000D1FA0028F7D02B7A113BDBB21B2B04D8B0
:1006F000064ADA401300DB07EDD46B685B68DDE780
:100700000368002B00D085E79DE7C046FF270F0B4D
:1007100010B588B0002817D06B46019019720023DD
:1007200003936B46049207221B7E084C93436A4650
:10073000137623680090684605932260FFF70CFF4C
:10074000059B236008B010BD0120FBE72824002092
:1007500010B50C00002813D00068002803D10DE06C
:10076000006800280AD00369002BF9D0002221007C
:10077000E26098470120237E984310BD0120FCE7EA
:100780004B681868E9E7C0460068704740687047E2
:10079000037A7F201840704700697047C06870472F
:1007A0000A4B1B68002B10D0012105E01A68824219
:1007B00005D05B69002B08D05A688242F6D11A7EB8
:1007C0000A431A765B69002BF6D170472824002073
:1007D000F0B5C64600B507000E001500984601F0BA
:1007E00067FA3F210800BC68A27E93069B0E013386
:1007F00018408A43410002430918A276E068890044
:1008000021F0CEFBBA68E060D368002B0ED0907E5A
:100810008006820E400E801880000C38181843465F
:1008200006600572436080BCB846F0BDFEE7C04676
:10083000037A013B0F2B01D8006970470020FCE7C9
:10084000027A0300143A0020052A00D8186970477C
:10085000037A132B00D0704702691388181C1BB24F
:100860008B4201DB1080F6E7081C1080F3E7C046DE
:10087000F0B54F464646D646037FC0B505008846CC
:100880001700DA072FD4C668002E00D0A6E08847EC
:1008900081464B46002B26D000234E469A463068B0
:1008A00001F0FEF9000624D531002800B847060003
:1008B000814518D0002EF2D12B7F1B0713D553464C
:1008C000002B10D02800C047002306009A46F1E70D
:1008D0004346002B00D17DE042460F214846FFF7FA
:1008E00017FF01283CD00020E0BCBA46B146A8461C
:1008F000F0BD3468002C05D110E0200007F0B4FDF5
:10090000041E0BD00121200001F0BCF90028F4D016
:100910000121200001F0B6F90028C5D1EB68B342EF
:10092000E1D0002B20D01B68002099461FF030FF3B
:10093000041E67D000230027984604E020001FF023
:1009400027FF041EC4D0200000F0E2F9636D9D4231
:10095000F4D1022846D027000428EFD1A046EDE7C5
:10096000EB68186802F03EFE33680020EE6098469F
:100970001FF00EFF041E4AD00026002704E02000CE
:100980001FF006FF041E10D0200000F0C1F9636DB7
:100990009D42F4D102282FD026000428EFD1200058
:1009A0001FF0F6FE2700041EEED1002F26D03A00DD
:1009B0000E214046FFF7ACFE012800D093E7EB681C
:1009C000186802F00FFE2B69002B01D02800984711
:1009D000012089E7002F15D0B8467DE70123B146F5
:1009E0009A4661E7A0460F2142464846FFF790FE2F
:1009F000012800D077E7B3E72700D8E7002E06D01C
:100A00003700D4E700201FF0C3FE804664E70020D3
:100A10001FF0BEFE0700CAE70822037F70B51D075E
:100A200013430400ED0F03775B0712D40F4A1049FC
:100A3000FFF71EFF6369002B04D0002802D10121BB
:100A4000200098470822237FED0093432B43237710
:100A500070BD084A0849FFF70BFF6369002BF1D00E
:100A60000028EFD1002120009847EBE7D51C0210A9
:100A7000BD1C0210DD1C0210C91C021010B5202183
:100A8000014821F055F810BD0C1B0020014B1868DF
:100A90007047C04680230020F8B5CE46474680B553
:100AA000060001F0FFF8051E1ED0C368002B02D01F
:100AB0001B68B3421CD0280021F000F9041E04D1A9
:100AC00012E021F007F9041E0ED02368210028004F
:100AD000B342F6D121F094F8200021F045FAB36832
:100AE000002B01D000229A60C0BCB946B046F8BDC8
:100AF0000122037F1A4201D093430377280021F09B
:100B0000DDF8EB6883420BD02800FFF785FFEB6828
:100B1000002BD0D01B689E42CDD10023EB60CAE7EA
:100B2000280021F0D1F8EB689842EDD1036800204D
:100B300099461FF02DFE0023040098460027002848
:100B400005D120E020001FF023FE041E0CD0200061
:100B500000F0DEF8636D9D42F4D102280CD0A0466F
:100B60000428EFD12700EDE7002F07D03A000F212E
:100B70004846FFF7CDFDCAE72700F7E74346002BBD
:100B800001D04746F2E700201FF002FE0700EDE724
:100B900070B504000D00002810D00800FFF77CFF9E
:100BA000200021F08BF8011E05D108E0200021F083
:100BB00091F8011E03D00B68AB42F7D170BD28003D
:100BC00001F070F800281AD0AB689A68002A03D0A8
:100BD000D2681268954210D020009C6020F0F8FF87
:100BE000061E09D00560200021F068F88642E5D194
:100BF0002000FFF711FFE1E7FEE7FFF70DFFAB680D
:100C0000002BE9D1280001F053F8AB68E4E7C046B7
:100C100010B50400064A0749FFF72AFE6369002B56
:100C200004D0002802D101212000984710BDC04601
:100C3000D51C0210BD1C0210F0B5C646050000B55B
:100C400000283BD0037F9A07D20F8A4236D0012278
:100C50000A40022152008B4313430377C368002BE1
:100C60002CD01F68002F29D000201FF091FD0023F9
:100C7000040000269846002805D12CE020001FF033
:100C800087FD041E10D0200000F042F8636D9D42E5
:100C9000F4D102281DD026000428EFD120001FF037
:100CA00077FDA046041EEED14346002B0DD04246F0
:100CB0000E213800FFF72CFD012802D080BCB84679
:100CC000F0BD380002F08EFCF8E7002E03D0B046ED
:100CD000EDE7A046EBE700201FF05AFD8046E6E76F
:100CE000002804D0C068002800D0006870470020A9
:100CF000FCE7C046002803D0007F8007C00F704784
:100D00000020FCE7014B18687047C04644280020CB
:100D1000002802D00368187870470020FCE7C0461E
:100D200070B50C00002825D002224379134343718B
:100D3000334B1B68834213D003681B78013B012BA4
:100D400000D970BD002C3DD0436BA3420FD0836A05
:100D5000A34209D0C36AA342F3D10023C362F0E7E0
:100D60000022284B1A60E7E700238362F2E70023A2
:100D70004363ECE700201FF00BFD00281ED0002C81
:100D80002BD00225002603E01FF002FD002815D01D
:100D900043792B43437103681B78013B012BF3D844
:100DA000436B9C4216D0836A9C4210D0C36A9C421B
:100DB000EAD1C6621FF0ECFC0028E9D10022114BF9
:100DC0001A60BEE7002344638462C362B9E700236C
:100DD0008362EBE700234363E5E70224002503E099
:100DE0001FF0D6FC0028E9D0437923434371036800
:100DF0001B78013B012BF3D845638562C562EFE7A1
:100E000044280020482800200122437910B593434C
:100E1000437104001FF0D6FCE0641FF0D3FCA06413
:100E200010BDC046002810D0022203681B789343EF
:100E3000012B04D001235B420B804B8070470822BA
:100E4000835E0B800A22835EF7E700230880F4E7C5
:100E5000031E0BD002210268002012788A43012A67
:100E600003D14332985C0007000F70470020FCE775
:100E7000031E08D002210268002012788A43012A4A
:100E800000D1186B70470020FCE7C04600230B80A0
:100E90004B8000280BD0022203681B789343012B60
:100EA00005D11822835E0B801A22835E4B80704727
:100EB000002803D008224379134343717047C0468A
:100EC000014B18687047C04648280020030070B5E1
:100ED00000281BD0032916D000240C2911D126226A
:100EE000805E1B685B7E002810D064250024ED1A0C
:100EF0002418642168432FF037FE00B224B2002882
:100F0000F6D1200070BD2422805EEAE70024F8E7D5
:100F1000F0B5DE464E4645465746E0B5A3B005005F
:100F2000FFF736FC06002800FFF72EFC0400122E07
:100F30000BD0152E1BD0182E00D1A3E023B0F0BC8F
:100F4000BB46B246A946A046F0BD2800FFF724FCE8
:100F500003780500022BF1D017220021200005F0B4
:100F600011FE061E00D154E102232B70E6E7280093
:100F7000FFF766FC04AD070028000BF013FD3422D8
:100F80000021200005F0FEFD002803D001226B7F28
:100F900013436B772A000021200001F001F8692239
:100FA0000021200005F0EEFD6A220600002120004D
:100FB00005F0E8FD00218846A28AB3B2E18A80B23A
:100FC000D21A091A12040904120C0A43218B10AE1A
:100FD0005B18618B1B04401800041B0C0343390091
:100FE00030000292039301F041FBDF4B320073604B
:100FF0004346B36002ABF360994643461A21200092
:1010000035617363FFF784FB17220021200005F090
:10101000B9FD002803D00022AB5E002B0AD14A465E
:10102000290038000BF0E2FC32001B212000FFF702
:101030006FFB83E7EB684A469B4643462900EB601B
:1010400038000BF0D3FC182020F0E6FF210000232D
:10105000EA5E1431002382460BF092F9210021311F
:101060005046FF310AF0C8FD5B46002BDCD04346FA
:101070004246EB702B772423EA540A33EA545B464A
:10108000EB60CCE72800FFF7DBFB02AB07001A00A0
:1010900020006946994605F0AFF968461FF0BEFE8C
:1010A000002804D148461FF0B9FE002855D004ADF1
:1010B00028000BF077FC802121222000490205F056
:1010C00061FDC0B2E870022800D92DE180213122F3
:1010D0002000490205F056FDC0B22877022800D949
:1010E00015E1802145222000490205F04BFD2E2606
:1010F000C0B2A855022800D9FCE080212000490296
:1011000006F09EFEFC2800D8B3E02E23EA78EB5CC4
:10111000297F1A430A4320D080235B0219000B2247
:101120002000984605F02EFD10AE288039003000D2
:1011300001F09CFA8C4B684673600223B36043460F
:10114000356173631FF06AFE002800D00EE1484647
:101150001FF064FE002800D0AAE017220021200022
:1011600005F010FD002800D0B6E034220021200058
:1011700005F008FD002800D1E0E604AD28000BF0E2
:1011800011FC00262423EE706E75EE540A33EE54E3
:101190002A002000002100F003FF69220021200026
:1011A00005F0F0FC80466A220021200005F0EAFCF0
:1011B0004346A28AE18A9BB280B2D21A091A12046B
:1011C0000904120C0A43218B5B18618B1B04401825
:1011D00000041B0C0343390010A80292039301F092
:1011E00045FA614B10AA1193012312934B461A2121
:1011F0002000139314951D96FFF78AFA4A4629009A
:1012000038000BF0F3FB1B21200010AAFFF780FA37
:1012100094E60B220021200005F0B4FC6922002195
:1012200007B2200005F0AEFC80466A2200212000B3
:1012300005F0A8FC4346A28AE18A9BB280B2D21A8A
:10124000091A12040904120C0A43218B5B18618BE2
:101250001B04401800041B0C0343109268683A00FA
:1012600010A9119320F066F800280FD101232B70EC
:1012700064E62E21EB7843431B12DAB243431B1280
:10128000DBB2EA702B776B54190042E72122002170
:10129000200005F077FCC0B2FC28E7D960220021CD
:1012A000200005F06FFCC0B2FC28DFD92E7045E6A7
:1012B0004B463200F3601A212000FFF729FA4B4613
:1012C0004A4629003800F3600BF090FB32001B21E6
:1012D0002000FFF71DFA40E720002130FF300AF020
:1012E00035FD051E00D140E70AF0D4FD280020F0AE
:1012F0003BFF3AE7802140222000490205F042FCF2
:1013000000B2E884002817DC0023AB55F5E6802105
:1013100032222000490205F035FC00B26883002823
:101320001ADC00232B77DCE68021202220004902F2
:1013300005F028FC2871C9E68021432249022000DB
:1013400005F020FC8021A88544222000490205F0F8
:1013500019FC2523E854D0E68021302220004902E0
:1013600005F010FC2876BCE6C04F03106B46320037
:10137000F3601A212000FFF7CBF96A4629003800F4
:101380000BF034FB32001B212000FFF7C1F9DEE631
:1013900010B50C000800FFF703FA002005F0ECFB85
:1013A0000021164A200005F001FF012005F0E4FBB2
:1013B000002120001FF07EFBA368002B1DD09A683F
:1013C000002A05D02000FFF767FBA368002B14D08C
:1013D0001868002804D020F0C7FD0022A3681A6016
:1013E000D868002804D020F0BFFD0022A368DA608E
:1013F000180020F0B9FD0023A36010BDFFFF0F000F
:10140000F0B5C6464F680C0000B5002F25D0380057
:1014100004F032FA0600380003F05CFD804610222A
:1014200000213800FD8A05F0ADFB42462B189B1ABF
:101430009BB2E382013B6383122200213800BD8A04
:1014400005F0A0FB2818801B80B2A082044B013855
:101450002083E36180BCB846F0BD024BF9E7C0468B
:1014600076BB000076180000F0B557464E46DE46C3
:101470004546E0B5048C06000F008DB08C4207D0C5
:101480000A000184210006F089FB8346002806D16A
:101490000DB0F0BCBB46B246A946A046F0BDA020A8
:1014A000800020F0B9FDA0218900099021F044F9C5
:1014B000738C9B059B0E61D0FB43049300239A46DB
:1014C0000A940B975446B0465F469946099B0433ED
:1014D00008934346DB68E5009A46AA445346586899
:1014E0000002000A06F094FC4346DB6803905B1997
:1014F000060058680002000A06F08CFC049B02906B
:1015000033422CD153460222DB791A4227D153466B
:101510001B681E689A88D9798B4B9A4242D0002961
:101520001DD0012916D08A000020B21803E0013036
:101530000232814213D91588AB049B0C672BF6D17C
:101540002BB2002B0BDB6D0400D5D9E08000835952
:101550009B463CE093049B0C672B00D1E0E04346A4
:101560005B8C01349B059B0E9C42B2D34B46BB4621
:1015700046460A9C0B9F002B00D0A8E0099820F05B
:10158000F3FD5B46012B00D1BFE0032B00D1C0E08F
:10159000022B00D07CE7300002F024F8300001F08C
:1015A0006DF875E70029DAD0002003E00130083635
:1015B0008142D4D93588AB049B0C672BF6D12BB272
:1015C000002BCCDB6D0400D59AE073689B465B462C
:1015D0001A681388002BC2D04B4600261000002B3F
:1015E00041D053460793434606933B0035004F4690
:1015F000994605940026BA46A8463700089C03E0A1
:1016000001371434574525D02568280006F000FC22
:101610000600280006F0FEFB5B461A684346A588D4
:10162000D118D35A9D42EBD1029B8342E8D1039B50
:10163000B342E5D83E0045465746564578D0023578
:10164000535B002BD6D1069B059C98464B46D14652
:101650001F002CE0069B46469846079B4F46080015
:10166000D1469A46059C4B4609999B008C465946A3
:101670004B44C9689B006344198059460969023686
:10168000598059468968D960018819815946496845
:101690001961514649680902090A596001239C46AB
:1016A000935BE144002B02D04B46202B99D143465B
:1016B0005B8C01349B059B0EA34200D856E74B463A
:1016C000202B00D005E74646BB460A9C0B9F4B46A5
:1016D000099A9B0090464B449B0098443B001500A0
:1016E00047469846686806F095FB0095010043461A
:1016F00022003000143506F071F9BD42F2D13DE709
:10170000672022F0C9F9834661E7300001F06AFFE3
:10171000BEE6F02130000C4A090305F01BFCB7E6D9
:1017200013B2002B00DA1AE75204E9D4B3464EE7AD
:10173000079B08009A46069B2E0098464B46059C40
:10174000B9461F008FE7C046FFFF0000F0B5080054
:1017500085B00E00FFF71CF805003000FFF716F803
:1017600004002A2D0BD8C04BAD005B599F462023A7
:10177000018C0B4203D099432000FFF775FE05B0A2
:10178000F0BD3000FFF7C4FBF9E7002100F0F8FEE0
:1017900001003000FFF75CF8F1E70122002105F0BD
:1017A000F1F9042200210600200005F0EBF90922DE
:1017B00000210700200005F0E5F90A2205000021BC
:1017C000200005F0DFF980B200280FD1EDB2002D26
:1017D0000CD1A64B36B29E4208D03FB29F42CED12A
:1017E00004E022220221835C0B438354200001F099
:1017F0001DF9C4E70922002105F0C4F90A220500F9
:101800000021200005F0BEF980B2002802D1EDB21F
:10181000002D02D0200001F009F9200006F03AFE68
:10182000061EACD00025A368AA001B680135D0585D
:1018300001F0FCF8AE42F6D1A1E706F02BFE061E41
:101840009DD00025A368AA001B680135D05801F07F
:10185000EDF8AE42F6D192E72021038C194399426C
:1018600000D18CE788E72023018C0B4200D0B0E048
:101870003000FEF7DDFFFFF7FBFA002800D07EE71F
:10188000E3691B0700D47AE70122238C1A4200D0B7
:10189000D3E00121194389B28B4200D1B3E020008B
:1018A000FFF7E2FDAFE04021038C19438B4200D1EA
:1018B00065E761E74023018C0B4200D08DE02000FA
:1018C00003F0E0FA022800D059E76946200002AA96
:1018D00004F092FD6946200001F060FE200002A99C
:1018E00001F05CFE4BE7C3691A077AD4812212012A
:1018F0001340934200D042E700F03EFB002800D0A6
:101900003DE7200003F0B8FF0700200003F0CAFF06
:1019100005003000FEF740FF0378122B00D18FE066
:10192000112B00D1A4E0132B00D1B4E0142B00D074
:1019300025E7200003F0B0FA800700D198E0002FDF
:1019400002DC002D00DC93E0200003F0AFFA05007C
:10195000200001F05DF90322C31713401B189B10F0
:10196000E91A0022200009B204F0F0FC07E7C3697D
:101970005B054ED4A068002800D08068FFF7BAF954
:101980000500FFF7BFF900284DD0FFF7C1F9FD238F
:10199000811E19404B425941238C89000231194361
:1019A000002D10D18B4203D02000FFF75DFD218C6C
:1019B00008230B4200D1E2E6DDE60E23018C0B4248
:1019C00000D1DCE6D7E608221143994200D1D6E6E1
:1019D000D2E69943FFF748FD4AE79943FFF744FDF4
:1019E0006DE73000FEF7D8FE037802211A008A4323
:1019F000112A12D01A00123A8A43D2B2002A16D003
:101A00000A2B00D1BBE600221C212000FEF780FE3D
:101A1000B5E6012104F0D2FCACE7238C013919436F
:101A20008B42F0D03BE73000FEF702FFADE7012329
:101A3000218C0B42E7D0994331E7934319002EE7FD
:101A4000200003F03DFA0500200001F0E7F8032331
:101A5000C11719400918891049190022200009B23C
:101A600004F090FC8BE6C046144F0310D127000011
:101A7000200003F025FA0500200001F0CFF8032232
:101A8000C31713401B189B10E91A0022200009B24B
:101A900004F078FC73E6200003F0FEF98007CFD055
:101AA000002F01DC002DCBDD200003F0FFF9050045
:101AB000200001F0ADF80323C1171940091889105F
:101AC00049190022200009B204F040FC57E6C04644
:101AD00010B5124C2378002B1ED120F015FA22F0FD
:101AE000B9F91FF06BFE1EF0A3FFFEF7C7FF08F069
:101AF0004DF805F039F8B4210948490020F018F8EC
:101B00005C21084820F014F806F030FD0BF00AFCC8
:101B100014F046F90123237010BDC046FCEA0020F2
:101B2000701A0020501B0020054B10B50100180052
:101B300000F020F9040000F095F9200010BDC04627
:101B4000C04F0310F0B585B004000D0000F054FF45
:101B50000600EB0727D4E3692B43E361200000F084
:101B60004BFFB04207D1C0235B041D4203D1ED06F9
:101B70000BD405B0F0BD200006F076FC00F056FF57
:101B8000200000F053FFED06F3D56946200002AABD
:101B900004F032FC6946200001F000FD200002A99B
:101BA00001F0FCFCE5E7200001F01CFDE3692B439C
:101BB000E361238C9B07D1D5A368002BCED09F680F
:101BC000002FCBD03800FFF723F83800FFF788F854
:101BD0000028C3D001F006FDC0E7C04670B584B050
:101BE00004000D0000F008FF0600EB0614D4E369C2
:101BF000AB43E361EB0721D4200000F0FDFEB042CF
:101C000003D1C0235B041D4204D0200006F02CFC4D
:101C100000F00CFF04B070BD02AA6946200004F079
:101C2000EBFB6946200001F0B9FC200002A901F09D
:101C3000B5FCE369AB43E361EB07DDD5200001F0C0
:101C4000D1FC200000F0D8FE0028D5D0200006F0FE
:101C50000BFC00F0EBFE200000F0E8FECCE7C046F5
:101C6000038C10B519438B4201D0FFF7FDFB10BD6B
:101C7000038C10B51A008A43194202D01100FFF7F5
:101C8000F3FB10BDC0690840401A43425841C0B23E
:101C90007047C046C0690840431E9841C0B27047B3
:101CA000008C70478068002800D080687047C0466C
:101CB000836810B50400002B00D010BD0A4A1C2018
:101CC00013680133136020F02DF9A06000280AD0BA
:101CD0001C2120F031FDA168044B0A8B1A40044BF3
:101CE00013430B83E9E7FEE7C0EA0020FCF0FFFFA7
:101CF000030F0000002805D00068401A43425841F5
:101D0000C0B270470020FCE7F0B5C6460568040085
:101D10002E6800B5002E23D03768002F19D03B68FD
:101D200007609846002B0DD01B68002B02D0036083
:101D3000FFF7EAFF434623605B68002B02D02100D7
:101D4000404698477B682760002B02D0210038006E
:101D5000984773682660002B02D021003000984716
:101D60006B682560002B02D021002800984780BCBA
:101D7000B846F0BDF8B507000E00031E5ED0374C24
:101D800002E01B68002B06D09A691500254022420C
:101D9000F7D01203150C280020F0C4F8041E5AD006
:101DA000290020F0C9FC27606660002E20D0B568AD
:101DB000002D3ED02868002810D069680131696084
:101DC000890020F0EDF82649B2688C4653682860F7
:101DD000126863449B009C502000F8BD043020F042
:101DE000A1F8B36828601A68146001225A60F3E70A
:101DF0001EF078FC051E2BD0C068002820D0696A30
:101E000001316962890020F0CBF8154A6B6A94466B
:101E100063449B00E8601C500023002063611EF0B7
:101E200067FC0138208300201EF076FC01386083B7
:101E3000D2E73000FFF73CFFB568BBE70025AAE713
:101E4000043020F06FF80123E86004606B62E3E780
:101E5000200020F089F80024BEE7C046F0FF0F0004
:101E6000FFFFFF3FF0B5C646040000B500F0DEFD01
:101E7000002004F081FE200007F030FE25682E6867
:101E8000002E24D03768002F1AD03B682760984670
:101E9000002B0ED01B68002B03D020002360FFF71F
:101EA00033FF434623605B68002B02D0210040468D
:101EB00098477B682760002B02D0210038009847A4
:101EC00073682660002B02D02100300098476B68B1
:101ED0002560002B02D0210028009847012004F043
:101EE0004BFEF0212000194A090305F033F82000C9
:101EF00000F030FFFEF7CAFD00280ED023680C2149
:101F0000002B03D109E01B68002B06D00D001A7EC0
:101F100015401142F7D0042D13D0200006F0A4FA8A
:101F2000051E0BD022002221FEF7F2FB2200232106
:101F30002800FEF7EDFB200001F054FB80BCB84602
:101F4000F0BD2100FEF724FEE7E7C046FFFF0000DA
:101F500010B5040000688368002B09D02100984761
:101F600023681868002806D083682060002BF5D10C
:101F700000680028F8D110BD03680321002B03D1AD
:101F80000CE01B68002B09D008001A7E104011429B
:101F9000F7D0013843425841C0B270470020FCE7F7
:101FA000F0B5C64600B506000D00140005F048FF68
:101FB0000700002D12D002280AD800232422E37043
:101FC00063752377A3540A32A35480BCB846F0BD8E
:101FD00068222900300004F0D5FDA0700B222900F2
:101FE000300004F0CFFDE3782080002B3DD1322279
:101FF0002900300004F0C6FD00B26083002803D041
:10200000237F002B00D0D5E035222900300004F0DA
:10201000B9FD00B22084002805D024239846E35C53
:10202000002B00D0E9E0637D002B00D08FE02E2351
:102030009846E35C002B54D1FC2FC6D82422E378C9
:102040007B431B12E370637D7B431B126375237F0D
:102050007B431B122377A35C7B431B12A3542E23C9
:10206000E25C57433F12E754AFE7212229003000DA
:1020700004F088FDC0B2E0700228B8D920222900FF
:10208000300004F07FFD29000200300005F066FDFD
:10209000290020712622300004F074FD011E03D0B7
:1020A00043795B0700D0C5E023222900300004F00B
:1020B00069FD07230200A07A1A4098431043A072DA
:1020C000034200D0BBE027222900300004F05AFD73
:1020D000072338220340A07ADB0090431843A07204
:1020E00085E740222900300004F04CFD00B2E08476
:1020F0000028A1D04346E35C022B9DD9452229004C
:10210000300004F03FFD4346C0B2E054022893D9AA
:1021100041222900300004F035FD422229002085AB
:10212000300004F02FFD432229006085300004F0C8
:1021300029FD44222900A085300004F023FD290058
:102140000200300005F00AFD2523E05474E7282240
:102150002900300004F016FDE060002800D166E799
:1021600029222900300004F00DFDC0B2607502285C
:1021700000D85CE7E06808F00BF9022800D181E0A4
:102180002A222900300004F0FDFC29000200300062
:1021900005F0E4FC2B2229002075300004F0F2FC4D
:1021A0002C22A0752900300004F0ECFC431E98415D
:1021B000E0753CE731222900300004F0E3FCC0B2B6
:1021C0002077022800D81FE733222900300004F0CE
:1021D000D9FC1F233E220340607F5B0090431843DD
:1021E000290060770E3A300004F0CCFC2900020090
:1021F000300005F0B3FC207606E7372229003000D6
:1022000004F0C0FC4346C0B2E054022800D80AE7FC
:1022100038222900300004F0B5FC36222900608401
:10222000300004F0AFFC29000200300005F096FCFD
:10223000A077F8E60622601D20F028F8D7E62022D5
:102240002900300004F09EFC29000200300005F057
:1022500085FC222229006071300004F093FC2900E3
:102260000200300005F07AFC24222900E0713000E1
:1022700004F088FC2522A0712900300004F082FCC3
:10228000207220E757222900300004F07BFC552201
:1022900029002061300004F075FC290002003000A4
:1022A00005F05CFC2075C2E6F8B514005622060065
:1022B0000D0004F067FCC0B22076022800D8F8BDFB
:1022C0002900300005F0BCFD02283AD9227EFC2806
:1022D00003D842431212D2B22276022AEFD95522F3
:1022E0002900300004F04EFC29000200300005F007
:1022F00035FC582229002073300004F043FC592299
:1023000029006082300004F03DFC5A22208229001E
:10231000300004F037FC07270300207F3B40B84320
:1023200018432077002D0FD157222900300004F0E8
:1023300029FC5B2220602900300004F023FCA076F9
:10234000BDE700232376BAE768222900300004F0B5
:1023500019FC3822237F0740FF0093433B43237738
:10236000E2E7C04670B51400462205000E0004F0F6
:1023700009FCC0B2A072022800D870BD310028004C
:1023800005F05EFD022835D9A27AFC2803D8424325
:102390001212D2B2A272022AEFD980235B04236008
:1023A0002B8BAA8A01339B1A1BB2DA0FD3185B104E
:1023B000A3806B8BEA8A01339B1A1BB2DA0FD31806
:1023C0005B10482231002800E38004F0DBFBC0B240
:1023D0006072002811D1002ECFD068223100280071
:1023E00004F0D0FB0F220300E07A1340904318431F
:1023F000E072C2E70023A372BFE747223100280042
:1024000004F0C0FB31000200280005F0A7FB207299
:10241000E1E7C04670B514004E2206000D0004F03E
:10242000B1FBC0B22072022800D870BD2900300074
:1024300005F006FD022845D9227AFC2803D842433C
:102440001212D2B22272022AEFD949222900300098
:1024500004F098FB00B260800028E6D04D222900ED
:10246000300004F08FFB29000200300005F076FBFD
:102470004A2220702900300004F084FB00B2A080C2
:10248000002822D14C222900300004F07BFB0421DB
:10249000431E9841637A82008B4313430822C00095
:1024A000934303436372002DBFD060322900300094
:1024B00004F068FB03220300607A13409043184342
:1024C0006072B2E700232372AFE74B22290030008D
:1024D00004F058FBE080D5E770B5140050220600E8
:1024E0000D0004F04FFB00B26080002800D170BDE9
:1024F00053222900300004F045FBC0B220730228AB
:10250000F5D92900300005F09BFC022835D9237B42
:10251000FC2803D843431B12DBB22373022BE6D9FA
:1025200052222900300004F02DFB29000200300067
:1025300005F014FB542229002070300004F022FB27
:102540005122A0602900300004F01CFB0422431E2D
:102550009841637B8000934303436373002DC6D08F
:1025600064322900300004F00DFB03220300607B7D
:102570001340904318436073B9E700232373B6E711
:10258000F8B5402204000D0004F0FCFA06B2002E5B
:102590001FD135222900200004F0F4FA06B20027EA
:1025A000002E4FD169222900200004F0EBFA6A22A4
:1025B000290006B2200004F0E5FA00B2031CB04284
:1025C00000DA331C1AB2002A01DDFF183FB23800CE
:1025D000F8BD45222900200004F0D4FAC0B2022838
:1025E000D7D943222900200004F0CCFAF30F9B191D
:1025F00001305B101B184122290020009EB204F01C
:10260000C1FA422207B22900200004F0BBFA03B24B
:10261000DA179B185340FA17BF185740B9B21A1C63
:102620009BB28B4200D23A1CB21817B2FF43FF177D
:10263000174029003522200004F0A4FA06B23FB268
:10264000002EAFD037222900200004F09BFAC0B240
:102650000228A7D938222900200004F093FA00B2FA
:102660008019B84200DA380007B29BE770B50D0058
:102670000400482120F060F8256070BD70B58368C3
:10268000040082B0002B2DD016269E5F6B469D1D48
:1026900000232A00132120002B80FEF739F80022A6
:1026A000AB5EB34205D1A368002B11D0DE8202B02D
:1026B00070BD200000F096FF0022AB5EA268002AE9
:1026C00007D0D3829E42F2D0200000F08BFFEEE7CD
:1026D0003300002BF6D02000FFF7EAFA0022AB5EB1
:1026E000A268EEE70026D1E78368002B02D016200F
:1026F000185E70470020FCE78368002B02D0987EAC
:10270000800970470020FCE7F0B5DE464E4645469E
:102710005746E0B587B00291039200216E22040073
:1027200004F030FA03B29B4606006D22002120001F
:1027300004F028FA5B4605B2002B03D10133FF33C6
:102740009D4233D06F220021200004F01BFA05AF18
:10275000702200213880200004F014FA03B2984659
:102760000022BB5E80229A46C0235146DB019201C3
:102770000B40934242D0A38A0193E38A8022994678
:10278000C0234146DB0192010B4093421FD0019BC5
:1027900053443B804B4643447B80039B002B0CD12E
:1027A0003B002A00594602981EF066FE07B0F0BCB6
:1027B000BB46B246A946A046F0BD8020764229001D
:1027C00033B240029B462EF0CFF905B2E8E7FA2378
:1027D0001748DB0008409842D9DCFA239B00984256
:1027E00000DD181A4A46638B642101339B1A1BB221
:1027F00058432EF0B9F903B29846C8E7A38A0C48AB
:102800000193FA230840DB009842B6DCFA239B00D0
:10281000984200DD181A238B019A01339B1A1BB2D0
:10282000584364212EF0A0F903B29A46A5E7C046AA
:10283000FF9FFFFF70B582B00D0016000023072137
:1028400001AA040005F07AF8012817D0002804D165
:1028500000222900200005F051FB00230821200060
:1028600001AA05F06BF8012813D0002804D100223A
:102870003100200005F04AFB02B070BD019BAB4265
:10288000E6D100230821200001AA05F057F801280D
:10289000EBD1019BB342EAD1EEE7C04630B583B03D
:1028A0000D000023072101AA040005F047F80128C4
:1028B00008D0002804D100222900200005F01EFBCA
:1028C00003B030BD019BAB42F5D1F9E730B583B021
:1028D0000D000023082101AA040005F02FF80128AB
:1028E00008D0002804D100222900200005F00EFBAA
:1028F00003B030BD019BAB42F5D1F9E770B582B0B2
:102900000D0016000023012101AA040005F016F8AD
:10291000012817D0002804D100222900200005F04A
:10292000D5FA00230421200001AA05F007F80128A8
:1029300013D0002804D100223100200005F0D6FA7F
:1029400002B070BD019BAB42E6D100230421200000
:1029500001AA04F0F3FF0128EBD1019BB342EAD1B5
:10296000EEE7C04630B583B00D000023012101AA77
:10297000040004F0E3FF012808D0002804D100225D
:102980002900200005F0A2FA03B030BD019BAB4244
:10299000F5D1F9E730B583B00D000023042101AA79
:1029A000040004F0CBFF012808D0002804D1002245
:1029B0002900200005F09AFA03B030BD019BAB421C
:1029C000F5D1F9E770B50400222589B2002205F09F
:1029D000CDFA0122635D20001343635505F012FD1B
:1029E0000422435D1343435505F016FD406800285B
:1029F00001D021F067FB70BD10B50B490400FFF753
:102A000049F9002801D0002010BD200005F02CFD60
:102A10000028F8D00A22002104F0B4F80004431E74
:102A20009841C0B2F0E7C0460100060010B522246C
:102A30000122035D1343035505F0E4FC0422035D0A
:102A40001343035505F0E8FC4068002801D021F04D
:102A500039FB10BDF8B50B4E0B4F33680500013341
:102A60000C003868D90033601FF09AFA031E3860F2
:102A700007D03068054A8218D2009B181D605C6040
:102A8000F8BDFEE7502800205C1B0020FFFFFF1F61
:102A900070B5040082B0150000221E0005F03EFA59
:102AA00000230721200001AA04F048FF012817D0C5
:102AB000002804D100222900200005F01FFA00237D
:102AC0000821200001AA04F039FF012813D00028B2
:102AD00004D100223100200005F018FA02B070BDC8
:102AE000019BAB42E6D100230821200001AA04F09B
:102AF00025FF0128EBD1019BB342EAD1EEE7C046A6
:102B00001422835E0B801622835E4B801822835E24
:102B10008B801A22835ECB807047C046F0B5C646D4
:102B200000B5040005F0A0FC051E19D0838AA48A14
:102B3000984602F0BBF9122207000021280004F099
:102B400021F8322206000021280004F01BF8434639
:102B50003618A41BE01AC01900B280BCB846F0BDFC
:102B60001423E05EF9E7C046F0B5C64600B50400A0
:102B700005F07AFC051E19D0C38AE48A984602F053
:102B80009FF9102207000021280003F0FBFF3222EA
:102B900006000021280003F0F5FF43463618A41B69
:102BA000E01AC01900B280BCB846F0BD1623E05E42
:102BB000F9E7C046F8B5CE46474680B5050005F0B2
:102BC00053FC061E20D0C38AEC8A994602F078F99D
:102BD000102280460021300003F0D4FF322207008B
:102BE0000021300003F0CEFF4A463F18E31B9B1A3A
:102BF0004344E98A98B26A8B01328018401A00B2C5
:102C0000C0BCB946B046F8BDE88A0100F3E7C0464B
:102C1000038B808A0133181A00B27047438BC08A35
:102C20000133181A00B2704770B512220021040057
:102C300003F0A8FF132205000021200003F0A2FFEB
:102C4000322206000021200003F09CFF0123AD1971
:102C50005B1B40001B1A208B1818A38AC01A00B2F5
:102C600070BDC04670B510220021040003F08AFF39
:102C7000112205000021200003F084FF322206000B
:102C80000021200003F07EFF0123AD195B1B4000F3
:102C90001B1A608B1818E38AC01A00B270BDC046B8
:102CA00070B505000C003222002103F06BFF1422E6
:102CB000AB5E414223801622AB5E09B263801822CC
:102CC000AB5E2000A3801A22AB5E0A00E3801EF0F8
:102CD000B3F828001222002103F054FF23881322A6
:102CE0001B1823802800002103F04CFFA38810222A
:102CF0001B1AA3802800002103F044FF63881122DF
:102D00001B1863802800002103F03CFFE3881B1A96
:102D1000E38070BD10B582B0054B01AC22002C21C0
:102D20000193FDF7F5FC0023E05E02B010BDC04644
:102D3000000001E010B582B0054B01AC22002C214F
:102D40000193FDF7E5FC0223E05E02B010BDC04632
:102D500001E0000070B501220021040003F012FF21
:102D60000422002105B2200003F00CFF0E4A03B23A
:102D7000954203D00020934200D070BD222501224D
:102D8000635D20001343635505F03CFB0422435D63
:102D90001343435505F040FB4068002801D021F063
:102DA00091F90120E9E7C046D1270000F0B54E4671
:102DB0005746DE464546E0B599B081460F001600FD
:102DC0000E910F92109305F065FB002800D15BE196
:102DD000BBB29B46B3B2DA46002506009B464B4683
:102DE0009B68AA001B68D458109B002B07D0802139
:102DF0002000C902FEF746FF002800D040E1A38A68
:102E000020005344A382E38A00275B44E382238BA0
:102E1000A84653442383638B5B44638305F03AFBEA
:102E20000B90002800D12BE1A368BA001B68D5588D
:102E3000AB8A28005344AB82EB8A5B44EB822B8B3A
:102E400053442B836B8B5B446B8305F023FB0C900B
:102E5000002800D10EE1002312974746D846D346FA
:102E600009931194AB68099A1B689200D458A38AFD
:102E700020005B44A382E38A4344E382238B5B44C8
:102E80002383638B4344638305F004FB0D90002888
:102E900000D1E3E000231396CA463E000893149540
:102EA000A368089A1B689200D758BB8A38005B4415
:102EB000BB82FB8A4344FB823B8B5B443B837B8B23
:102EC00043447B8305F0E6FA0690002800D1BAE07F
:102ED000002355460797C2465F46B046A3461C00EE
:102EE000079BA2009B681B68D658B38A3000FB186A
:102EF000B382F38A5344F382338BFB183383738B8F
:102F00005344738305F0C6FA002800D191E00023F2
:102F100000932B003500994606000594AB68009A93
:102F20001B689200D458A38A2000FB18A382E38A6E
:102F30005344E382238BFB182383638B53446383C3
:102F400005F0A8FA029000286BD000230A934346AC
:102F500015935B461795CB462500B846340016936B
:102F6000AB680A9A1B689200D758BB8A3800434462
:102F7000BB82FB8A5344FB823B8B43443B837B8B6A
:102F800053447B8305F086FA039000283BD000264B
:102F9000B94637004B469B68BA001B68D658B38ABF
:102FA00030004344B382F38A5344F382338B434467
:102FB0003383738B5344738305F06CFA04900028B9
:102FC0001DD000230193B368019A1B689200D0586A
:102FD0000E99838A0F9A43448382C38A5344C382DF
:102FE000038B43440383438B534443830023FFF702
:102FF000DDFE019A531C049A01939A42E3D1039B8C
:103000000137BB42C6D10A9B029A01330A939A4206
:10301000A6D1169BD9469B46159B47462600984647
:10302000179D009B013300939E4200D076E74D46EA
:10303000059C069B0134A34200D051E746465C46FE
:10304000D046BB46AA46089B0D9A013308939A4284
:1030500000D025E7D1463700149D139E099B0C9A9A
:10306000013309939A4200D0FCE6DA46119CC3462C
:10307000B846129F0B9B0137BB4200D0D4E64546B1
:103080000135AE4200D0AAE619B0F0BCBB46B2464C
:10309000A946A046F0BDC046F0B5C64604000D00E6
:1030A0001600984600B5002819D0FFF725FB4346C7
:1030B0000700002B16D102280AD0002E0FD02000C6
:1030C00005F0D2F9041E0AD0FFF716FB0228F6D14C
:1030D000002229002000FFF717FB002EEFD180BC53
:1030E000B846F0BD002E07D1022FF8D101222900E9
:1030F0002000FFF709FBF2E7200005F0B5F9804654
:103100000028F1D0FFF7F8FA0600404605F0ACF9C8
:10311000012301222900FFF7BFFF022EE4D1012283
:1031200029004046FFF7F0FADEE7C046F0B5454615
:1031300057464E46DE46E0B51D000B008846DB884C
:1031400016004A8809881B040400080085B019434A
:103150000191414612041043009089886F460A434A
:10316000194302920391002C68D02000FFF7C4FAA3
:103170008146002D00D0B5E025006F4602280AD018
:10318000002E0FD0280005F06FF9051E0AD0FFF7BA
:10319000B3FA0228F6D1002239002800FFF7B4FA6A
:1031A000002EEFD12000FFF7A7FA250002280BD050
:1031B000002E10D0280005F057F9051E0BD028006E
:1031C000FFF79AFA0228F5D10022280001A9FFF79B
:1031D0009BFA002EEED12000FFF78EFA2500022880
:1031E0000BD0002E10D0280005F03EF9051E0BD0A4
:1031F0002800FFF781FA0228F5D10022280002A951
:10320000FFF782FA002EEED12000FFF775FA0228B0
:1032100004D10022200003A9FFF776FA002E0DD07A
:10322000200005F021F9041E08D0FFF765FA0228F6
:10323000EFD0200005F018F9041EF6D10C23FA5E39
:103240000823FC5E0423F85E0023F95E131CA242EF
:1032500000DD231C1DB2854200DD031C1DB28D4222
:1032600000DD0B1C45462B80131CA24200DA231CF8
:103270001AB2824200DA031C1AB28A4200DA0B1C2C
:10328000424693800E23FA5E0A23FC5E0623F85E14
:103290000223F95E131CA24200DD231C1DB28542ED
:1032A00000DD031C1DB28D4200DD0B1C45466B800A
:1032B000131CA24200DA231C1AB2824200DA031C59
:1032C0001AB28A4200DA0B1C42460521D3804046DE
:1032D00005221DF0B1FD05B0F0BCBB46B246A946C3
:1032E000A046F0BD002E08D1022800D1A0E02000A9
:1032F000FFF702FA6F468346A7E0200005F0B4F816
:103300008246002800D1C0E0FFF7F6F96F460500BD
:10331000504605F0A9F8012301223900FFF7BCFE51
:10332000022D00D1ABE04B46022B00D181E0200002
:10333000FFF7E2F98346200005F096F88146002861
:103340005ED0FFF7D9F90500484605F08DF801ABCE
:103350009A46012201235146FFF79EFE022D7CD0A2
:103360005B46022B51D02000FFF7C6F983462000B0
:1033700005F07AF88146002831D0FFF7BDF9050045
:10338000484605F071F802AB9A46012201235146E6
:10339000FFF782FE022D66D05B46022B24D0200070
:1033A000FFF7AAF98146200005F05EF8061E0CD052
:1033B000FFF7A2F90500300005F056F801230122BD
:1033C00003A9FFF769FE022D53D04B46022B00D014
:1033D00034E70122200003A9FFF796F92EE75B46A8
:1033E000022BDCD102AB9A46012251462000FFF7A6
:1033F0008BF92000FFF780F98146002EE5D0D2E757
:103400005B46022BAFD101AB9A4601225146200008
:10341000FFF77AF92000FFF76FF98346002EA6D157
:103420005B46022BDED02000FFF766F98146CCE731
:103430006F46012239002000FFF766F92000FFF7F0
:103440005BF98346002E00D075E75B46022BDAD08D
:103450002000FFF751F98346E2E701225146484632
:10346000FFF752F97CE7012251464846FFF74CF935
:1034700092E70122300003A9FFF746F9A5E70122F0
:1034800039005046FFF740F94DE74B46022BCFD0AD
:103490002000FFF731F96F4683464CE7F0B50E0088
:1034A00083B001210400FEF7EDFB002802D00020CC
:1034B00003B0F0BD200004F0A5FF050004F0ACFF50
:1034C0000700FDF701F885420ED03800FDF708F837
:1034D000854209D03800FDF70FF8854204D0380046
:1034E000FDF716F88542E2D1802120000903FEF79E
:1034F000D1FB00281CD12000FFF7F6F8A28A81B288
:10350000E38A521A5B1A12041B04120C1A43238B0F
:10351000608BCB181B04091809041B0C0B43009289
:1035200031006A46300001931DF0A6FC0028BED091
:103530002000002301223100FFF7F8FD200004F0F5
:1035400093FF6D46041E1FD125E080212000090352
:10355000FEF7A0FB002812D123002A00143303CB6E
:1035600003C20122290020000023FFF7DFFD2A000B
:10357000310030001DF080FC002800D197E72000CA
:1035800004F072FF041E06D001212000FEF77AFB32
:103590000028DAD08BE701208AE7C04630B583B037
:1035A0000C00050004F038FFFCF7C6FF002801D12D
:1035B00003B030BD6288238812041A43E388A188CF
:1035C0001B040B432800694600920193FFF766FF36
:1035D0000028EDD0280004F01FFF694605F07AFEB0
:1035E000E6E7C046F0B5CE46474680B5040083B056
:1035F000FFF77AF81423E75E1622A35E05009946CA
:103600001823E65E1A22A35E2000984604F004FF09
:10361000FCF792FF002804D103B0C0BCB946B04605
:10362000F0BD4B46A8B23F1A86191B1A3F0440440E
:10363000360400041B043F0C360C06431F43694646
:10364000200000970196FFF729FF0028E4D0200012
:1036500004F0E2FE694605F03DFEDDE7F0B54546C3
:103660004E46DE465746E0B543680400984687B0AC
:103670008EB295B2002B26D012220021180003F042
:1036800081FA002107001022404603F07BFA8021D6
:103690008146C9022000FEF7F5FA002800D199E022
:1036A0004346F7199E8A4D44F619DF8AB6B27F1950
:1036B000BDB232220021404603F064FA80B286197E
:1036C0004519B6B2ADB2A38AF61AE38AB6B2ED1ABC
:1036D0003300ADB22B4372D02000FFF783FFA36904
:1036E00099461623E15E1823E25E1423E05E1A2752
:1036F000E35F676902974F460397002701974746A4
:10370000002F14D0404604A9FFF7CAFA002204A9EA
:1037100002A81DF00FFE0190002800D172E01423D2
:10372000E05E1623E15E1823E25E1A27E35F30189D
:103730006918B218EB18A082E1822000228363830B
:1037400004F0A8FE002821D033B29A462BB2994645
:103750002300002704009B465B469B68BA001B6859
:103760005146D0580137838A4A46F3188382C38A68
:10377000EB18C382038BF3180383438BEB1843834B
:103780000023FFF713FBBC42E6D15C464346002B07
:103790001CD0220022214046FCF7BAFF2000FFF790
:1037A00021FF20000022143004A91DF0C3FD019B5D
:1037B000002B01D1002802D0404602F03FFE07B0A6
:1037C000F0BCBB46B246A946A046F0BD2000FFF7BC
:1037D00009FFF4E7434614229B5E40463FB2DF19DF
:1037E00001F064FB43463F1AF6191627DF5F4B468C
:1037F00040461BB2FF1801F063FB3F1AED19B6B249
:10380000ADB256E7404602F019FE88E7F0B5DE4655
:1038100057464E464546E0B5C7498BB00400FEF713
:1038200039FA002800D1C7E0200004F01DFE07226D
:1038300000210500200003F0A5F90822814600219F
:1038400007B2200003F09EF903B280460093002DDA
:1038500000D13EE112220021280003F093F9132247
:1038600006000021280003F08DF932228246002153
:10387000280003F087F93300012653442A8BF31AFA
:1038800040001B1A9B18AA8A00219B1A9AB2089220
:103890001BB210222800049303F074F9112282460F
:1038A0000021280003F06EF932228346002128000F
:1038B00003F068F953465B44F61A40006B8B361AE6
:1038C000F618EB8A4A46F61AB3B2079333B203935B
:1038D000C023DB011A40130080229201934200D1E1
:1038E00077E0C0234246DB011A4013008022920198
:1038F000934200D1D8E06B220021200003F042F96E
:103900006C2203B28046002120009A4603F03AF967
:10391000A28A03B205929946238B060001339BB21B
:1039200009939B1A1BB20193E28A0692638B0133BF
:103930009BB29B469B1A1BB20293C0234246DB01FB
:10394000134080229201934200D198E0C023DB0112
:103950001E4080239B019E4200D17BE0009B002102
:103960004B449AB291461BB209222000984603F0BC
:1039700009F95744C0B2BEB23FB2002807D00128AF
:103980000ED009280CD86D4B80001B589F4616227C
:103990000021280003F0F6F8C0B2012800D19EE013
:1039A000424639002000FFF759FE0BB0F0BCBB4681
:1039B000B246A946A046F0BD200004F055FD0028FF
:1039C00000D131E70A22002103F0DCF80004ECD139
:1039D0002AE7FA235A48DB003840984200DD80E7A6
:1039E000FA239B00984200DD181A049B6421584377
:1039F0002DF0BAF807B274E7049A01999446D30FF0
:103A000063448C46CA0F62445B1052109B1AF6182E
:103A100037B2039A02999446D30F63448C46CA0F77
:103A200062445B1052109B1A4B441BB29846B7E796
:103A3000059B099A9F1A089B9C466744F7193FB259
:103A40005A46069B9B1A079A944663444B441BB202
:103A50009846A5E74B463A481840FA23DB009842BF
:103A600000DD7BE7FA239B00984200DD181A029BD9
:103A7000642158432DF078F803B299466EE7534617
:103A80002F481840FA23DB00984200DD5EE7FA2356
:103A90009B00984200DD181A019B642158432DF0C9
:103AA00063F803B29A4651E7009B25481840FA2371
:103AB000DB00984200DD1EE7FA239B00984200DD00
:103AC000181A039B642158432DF04EF803B200935B
:103AD00011E71A0039002000FFF7C0FD65E7059BDC
:103AE000099A9F1A089B9C466744F7193FB257E70B
:103AF000049B019A9C46DF0F67449446D30F6344AE
:103B00007F105B10FF1AF7193FB249E7099A059B2E
:103B10009B1A089A94466344F3181FB279E7049BF2
:103B2000019A9C46DF0F67449446D30F63447F108D
:103B30005B10FF1A82E7C04601000600DC4F03104D
:103B4000FF9FFFFFF0B54E46DE4657464546E0B5BF
:103B500023260C23825D04008DB013400C2B00D172
:103B600082E004F081FC051E00D17DE0200001F020
:103B700083FEA35D00901B0700D47DE0268BA38A03
:103B80000136F61A002320009B4601F0A3F92323F7
:103B9000E35C070036B25B0700D4EEE0638BE28A99
:103BA00001339B1A1BB298465B46002B00D06EE196
:103BB000238BA28A01339B1A1BB29E4206D1638BD0
:103BC000E28A01339B1A1BB298454DD02000FFF7C3
:103BD00009FDA38A08AA1380E38A28005380238B57
:103BE0000AA99380638BD380FFF75AF800220AA9B1
:103BF00008A81DF09FFB071E00D154E1E38A16229E
:103C0000013B434400212000638302F0BBFFC0B2AC
:103C1000B6B2012800D141E1A38A013BF618268300
:103C2000292108AA2000FCF773FD22002221280088
:103C3000FCF76EFD2000FFF7D5FC222202212000B8
:103C4000A35C14300B43A3540AA900221DF072FB9D
:103C5000002F01D1002802D0280002F0EFFB200045
:103C6000FEF70CFD012000E000200DB0F0BCBB46CB
:103C7000B246A946A046F0BD01220021200002F074
:103C800081FFD64B07B2FB185A425341DBB29B4629
:103C9000C023DB011840802300269B01984206D1F7
:103CA000FA22CF4BD2003B40D90F9A424E4112220A
:103CB0000021280002F066FF132280460021280020
:103CC00002F060FF322281460021280002F05AFFF4
:103CD000424601234A449B1A40002A8B1B1A9B1818
:103CE000AA8A9B1A1BB29A46BE4B98469F4200D1A5
:103CF00007E2002E11D02323EB5C1B0700D44BE11D
:103D0000FA23B7489B003840984200DD1EE1534635
:103D1000642158432CF028FF07B202220021200022
:103D200002F030FF032206B20021200002F02AFF39
:103D300003B29846C0238022DB01920133409342B4
:103D400000D1EEE0C02380224146DB0192010B400E
:103D5000934200D1D1E03B1C474500DD43461AB2F7
:103D6000B24200DA331C20001EB201F0B3F8232364
:103D7000E35C07005B0700D510E704220021200068
:103D800002F000FF03B29846944B43445A42534119
:103D9000DBB20193C023DB0100221840802392464E
:103DA0009B01984209D142468D4B50461340FA225E
:103DB000D90FD2009A4248418246102200212800A1
:103DC00002F0E0FE112281460021280002F0DAFE16
:103DD000322202900021280002F0D4FE0123029A30
:103DE00040004A449B1A6A8B1B1A9B18EA8A9B1A4A
:103DF0001BB202937B4B9946984500D1F4E05346A1
:103E0000002B14D02323EB5C5B0700D4A0E04346D7
:103E1000734803401800FA239B00984200DD93E0AA
:103E2000029B642158432CF09FFE03B29846052262
:103E30000021200002F0A6FE062203B2002120008D
:103E4000994602F09FFE03B29A46C023802249465B
:103E5000DB0192010B4093423CD0C02380225146AB
:103E6000DB0192010B40934221D04346D04500DD57
:103E700053461AB24A4500DA4B461BB298465B4697
:103E8000019A13439B465B46002B00D190E600232A
:103E90003A002000009902F025FA89E6238B0133CD
:103EA0009B1BA382BCE6280002F0C8FAA6E6FA2310
:103EB0004B48DB0008409842D7DCFA239B0098422D
:103EC00000DD181A029B642158432CF04DFE03B20A
:103ED0009A46CAE7FA234248DB0008409842BCDC15
:103EE000FA239B00984200DD181A029B6421584374
:103EF0002CF03AFE03B29946AFE7FA233848DB00CC
:103F00000840984200DD26E7FA239B00984200DD36
:103F1000181A5346642158432CF026FE03B29846E3
:103F200019E7FA232E48DB003040984200DD09E70C
:103F3000FA239B00984200DD181A53466421584327
:103F40002CF012FE06B2FDE6181A69E7181ADEE632
:103F500004220021280002F015FE00B2484500D0DE
:103F600055E732220021200002F00CFE102281468B
:103F70000021200002F006FE484483B211220021F5
:103F80002000984602F0FEFD4A4603B212B29B188A
:103F900043441BB298464AE701220021280002F060
:103FA000F1FD00B2404500D0AAE6322200212000F7
:103FB00002F0E8FD122206000021200002F0E2FDDE
:103FC000132287190021200002F0DCFD36B203B273
:103FD000BFB29B19FF183FB29FE6C0462FD8FFFF24
:103FE000FF9FFFFFD127000000220021200002F0E8
:103FF000C9F932220021200002F0C4FD80461022BF
:104000000021200002F0BEFD43469BB2984640448A
:1040100002B283B20021079220001122049302F021
:10402000B1FD404482B20AA88046D34B2C210392B2
:10403000020020000A93FCF76BFB039940468C4674
:10404000049B0222825E63449B181BB220009846A8
:1040500004F020FA002800D1E9E6C84B06969A46FB
:10406000002399465B464E46BB4681465746AA46C4
:1040700025000593AB68B2001B68C149D4582000E5
:10408000FDF708FE002823D12000BE49FDF702FEFF
:1040900000280AD1200004F0E7F9002805D00A2200
:1040A000002102F06FFD000408D109220021200048
:1040B00002F068FDFC23034200D0BAE01A22A35E9E
:1040C00016216A5E9B1A0133BB4200DA3B001FB225
:1040D0000136B145CED12C005546BA46059B5F4608
:1040E0009B46A64B069E9A4500D1A0E6039B5344EF
:1040F0009BB21A1C1BB2434500DA424613B29846E3
:1041000095E600220021200002F020F93222002151
:10411000200002F037FD132206000021200002F0EB
:1041200031FDB6B2301887B212220021200002976A
:1041300002F028FD3618B3B201930AAE924B2C213F
:10414000320020000A93FCF7E3FA019A0021735E23
:10415000944620006744FF1804F09CF9162281461B
:104160000021200002F00EFDC0B24B463FB20128F4
:1041700079D0002B00D1D0E56B4604229B5E00264F
:1041800004937E4B98465B4603934346AB46B84642
:1041900025001F00AB68B2001B687949D458200085
:1041A000FDF778FD002829D120007649FDF772FD42
:1041B00000280AD1200004F057F9002805D00A226F
:1041C000002102F0DFFC00040ED1092200212000B2
:1041D00002F0D8FCFF231840072800D999E06C3B77
:1041E000C340DB0700D494E01822A35E14216A5E6A
:1041F0009B1A0133BB4200DA3B001FB20136B145C6
:10420000C8D13A00039B2C005D469B465B4B47465A
:1042100090469A4200D180E5029B43441BB2574A24
:10422000934200D179E53A1C9F4200DA1A1C17B27A
:1042300073E508220021200002F0A4FC00B200284F
:1042400000D045E70799638B8C46E28A01339B1ABD
:104250009AB21BB263449F4200DD39E7049B9C463F
:10426000624417B234E7002B00D156E56B460822B2
:104270009B5E00260493414B98465B46039343465E
:10428000AB46B84625001F00AB68B2001B683C492E
:10429000D4582000FDF7FEFC002828D12000394921
:1042A000FDF7F8FC00280AD1200004F0DDF8002812
:1042B00005D00A22002102F065FC00040DD109227C
:1042C0000021200002F05EFCFF23184008283AD8A5
:1042D0004A23FF33C340DB0735D51822AB5E1421D8
:1042E000625E9B1A0133BB4200DA3B001FB201360B
:1042F000B145C9D13A00039B2C005D469B461F4B3C
:10430000474690469A4200D107E5019B43441BB2C1
:1043100085E708220021200002F034FC00B20028CA
:1043200000D06BE70499238B8C46A28A01339B1A39
:104330009AB21BB263449F4200DD5FE7019B9C463B
:10434000624417B25AE707220021200002F01AFC4B
:1043500000B20028CBD10499238B8C46A28A01336A
:104360009B1A9AB21BB263449F42C0DC029B9C46DC
:10437000624417B2BBE7C04601E0000001E0FFFF66
:104380000100040001000600000001E070B5050016
:1043900004F080F8061E1BD00024AB68A2001B6846
:1043A0000134D058FFF7F2FFA642F6D122240122B1
:1043B0002B5D1A421BD102221A4200D170BD22216C
:1043C0006B5C280093436B54002102F079F8F5E709
:1043D000222401222B5D1A42EDD093432B55280055
:1043E000FFF7B0FB2800FFF711FA2B5DE3E79343DB
:1043F0002B552800FFF7A6FB2800FFF707FA0A2233
:104400000021280002F0BEFB0004030C002810D09D
:10441000094A12689A420CD30849094A8C46126824
:104420006344DB00D318596828001B6898472B5D4C
:10443000C1E72223EB5CBEE750280020FFFFFF1FEF
:104440005C1B0020F0B54546DE4657464E46E0B5BB
:1044500087B0019310AB914600229B5E80469A463E
:10446000CB4B0D009B461B78002B00D195E0002D17
:1044700000D1ADE0404603F0F7FF322200210700F3
:1044800002F080FB122204000021380002F07AFBC7
:10449000A4B2201803B2102200213800009302F0C9
:1044A00071FB241823B23222002128009B4602F01F
:1044B00069FB122204000021280002F063FBA4B271
:1044C000261810220021280002F05CFB4B4624181D
:1044D000B6B2A4B2002B06D0152B00D988E2AD4AA3
:1044E0009B00D3589F4616220021280002F04AFB69
:1044F000C0B2012800D189E016220021380002F064
:1045000041FB1422AB5E019AC0B2944614217A5E3C
:1045100063449B1A994601286ED0380001F0ACF92B
:10452000009B4844C01A361836B21623ED5E162298
:10453000BB5E38005544ED1A00F0CCFC5B464019D8
:10454000C01A002201212418404603F0E7FC002392
:104550000721404605AA24B203F0F0F901283CD017
:10456000002804D100223100404603F0C7FC00239C
:104570000821404605AA03F0E1F9012838D00028B7
:1045800004D100222100404603F0C0FC07B0F0BC7B
:10459000BB46B246A946A046F0BD5A460133137049
:1045A00003F030FF2223C35C0400222604275B07AC
:1045B00008D5A35D2000BB43A355FFF7E7FEA35D2D
:1045C0001F42F6D100235A461370002D00D051E748
:1045D000404603F049FF05004CE7059BB342C1D1BB
:1045E00000230821404605AA03F0A8F90128C6D1F6
:1045F000059BA342C5D1C9E7380001F053F9030078
:10460000009A4B449B1AF61836B28EE7122200210C
:10461000280002F0B7FA132281460021280002F098
:10462000B1FA322202900021280002F0ABFA4B4688
:10463000029AF31A9B1A42464000928A1B1A9B1850
:104640004246128B9B1A2A8B9B18AA8A9B1A9EB2EF
:1046500052E712220021280002F094FA13220021CE
:104660000290280002F08EFA3222814600212800B2
:1046700002F088FA0123029A40004A449B1A2A8BCE
:104680001B1A9B18AA8A41469B1A1BB2DA0FD21832
:1046900043461B8B898A01335B1A1BB2D90FCB1897
:1046A0005B10F31A5210D21896B210220021280083
:1046B00002F068FA112200210290280002F062FA4A
:1046C000814632220021280002F05CFA4A46029B11
:1046D0004000E31A9B1A4246D28A1B1A9B18424694
:1046E000528B9B1A6A8B9B18EA8A9B1A9CB203E72F
:1046F00012220021280002F045FA13220021029024
:10470000280002F03FFA814632220021280002F000
:1047100039FA4A46029B4000F31A9B1A4246928A93
:104720001B1A9B184246128B9B1A2A8B9B18AA8A2B
:104730009B1A9EB210220021280002F023FA1122B7
:1047400000210290280002F01DFA32228146002149
:10475000280002F017FA0123029A4A449B1A6A8B36
:1047600040001B1A9B18EA8A41469B1A1BB2DA0FBB
:10477000D21843465B8BC98A01335B1A1BB2D90F2F
:10478000CB185B10E31A5210D21894B2B4E6C046AC
:10479000FEEA0020045003102E8BAB8A0136F61A75
:1047A0006B8BEA8A01339B1A1BB2DC0FE418434679
:1047B00042465B8BD28A01339B1A1BB2DA0FD318A5
:1047C00064105B10E41AB6B2A4B295E64346DC8AE4
:1047D0005B8B013CE41A0026A4B28DE61222002174
:1047E000280002F0CFF9132200210290280002F0E5
:1047F000C9F9322281460021280002F0C3F90122C2
:10480000029B40004B4491464A46D31A2A8B1B1AFE
:104810009B18AA8A41469B1A1BB2DA0FD21843464C
:104820001B8B898A01335B1A1BB2D90FCB185B1023
:10483000F31A5210D2180021280096B2102202F06A
:10484000A1F9112200210290280002F09BF93222E6
:1048500003900021280002F095F9039A029B9446E8
:104860004A466344D31A7AE72E8BAB8A0136F61A8E
:104870000024B6B240E643469E8A1B8B013EF61AE0
:104880004346DC8A5B8BB6B2E41A6B8BE418EB8A86
:10489000E41AA4B230E643469E8A1B8B013E7EE7B3
:1048A00043469E8A1B8B013EF61A0024B6B223E6CD
:1048B00043469E8A1B8BF61A2B8BF618AB8A6C8BA1
:1048C000F61AEB8A0134E41AB6B2A4B214E6122244
:1048D0000021280002F056F913220021029028003E
:1048E00002F050F9814632220021280002F04AF9F4
:1048F0004A46029B4000F31A9B1A4246928A1B1AB0
:104900009B184246128B9B1A2A8B9B18AA8A9B1AC9
:104910009EB2CAE612220021280002F033F91322C7
:1049200000210290280002F02DF932228146002158
:10493000280002F027F90123029A40004A449B1AFA
:104940002A8B1B1A9B18AA8A41469B1A1BB2DA0FA4
:10495000D21843461B8B898A01335B1A1BB2D90FCD
:10496000CB185B10F31A5210D21896B2C4E52B8BF9
:10497000AA8A01339B1A1BB2DE0FF6184346424641
:104980001B8B928A01339B1A1BB2DA0FD318761055
:104990005B10F61A4346DC8A5B8B013CE41AB6B224
:1049A000A4B2A9E52B8BAA8A01339B1A1BB2DE0F96
:1049B000F618434642461B8B928A01339B1A1BB260
:1049C000DA0FD31876105B1079E76C8BEB8A013421
:1049D000E41A0026A4B28FE543469E8A1B8BF61A82
:1049E0002B8BF618AB8AD4E72E8BAB8A013646E7C1
:1049F0000024260080E5C046F8B55746DE464E4600
:104A000045463A4BE0B59A461B78002B05D0F0BCE2
:104A1000BB46B246A946A046F8BD524601331370C4
:104A200003F0F0FC01230500222799469B4604224F
:104A30009046EB5D424641461A40194230D042460C
:104A4000EB5D28009343EB5503F024FD061E18D0C0
:104A50000024AB68A2001B680134D058FFF796FC15
:104A6000A642F6D14A46EB5D1A421CD102221A42F6
:104A7000E0D0EB5D002193432800EB5501F020FDD1
:104A8000D5E74A46EB5D1A42F0D04A469343EB55D0
:104A90002800FFF757F82800FEF7B8FEEB5DE5E7C2
:104AA00053461A70B3E75A469343EB552800FFF775
:104AB00049F82800FEF7AAFE0A220021280002F089
:104AC00061F80004030C00280ED0094A12689342D2
:104AD0000AD80849084A8C4612686344DB00D31898
:104AE000596828001B689847EB5DBFE7FEEA002085
:104AF00050280020FFFFFF1F5C1B002010B50400A2
:104B000082B0FDF7F1FDA18AE28A83B2C91AD21AF6
:104B100009041204090C1143228B608B9A181204A9
:104B20001B18120C1B0413430091200069460193CB
:104B3000FEF7B4FC02B010BD70B504000D00FDF727
:104B4000B7F8A3689D8270BD70B51423C55E0D8053
:104B50001623C25E4A801823C45E8C801A23C65E68
:104B60008368CE80002B08D09B8AED1A1C19D21ABC
:104B70009B190D808C804A80CB8070BD10B50022BF
:104B80000A210068FBF7C4FD10BDC046F8B5DE463B
:104B90004E46454657461322E0B50021060001F077
:104BA000F1FF122200218246300001F0EBFF322299
:104BB00000218146300001F0E5FF8046300003F01F
:104BC00069FC051E47D00024264FB368A2001B686D
:104BD0002549D35818009B46FDF75CF8002807D1FB
:104BE0005B469B8A1A1C1BB2BB4200DD3A1C17B203
:104BF0000134A542E9D14B469BB2994643469DB24A
:104C0000184B9F4225D04B465C19B38AE418E41B2D
:104C100024B23000FEF77EF807003000FDF7F8FF01
:104C20004B466D005344EB18DB19B2681B1A9BB25C
:104C3000002A02D0128A9B1A9BB2181C1BB2A342F4
:104C400000DA201C00B2F0BCBB46B246A946A04622
:104C5000F8BD064CDDE743469DB24B469BB29946F4
:104C6000024CD6E7FF1F00000100040001E0FFFF37
:104C7000F8B5CE46474680B5060003F00BFC8046EB
:104C8000002850D00024324FB368A2001B6831497D
:104C9000D5582800FCF7FEFF002806D12B8B1A1CE4
:104CA0001BB2BB4200DA3A1C17B20134A045EBD16B
:104CB00013220021300001F065FF122200210500BF
:104CC000300001F05FFF322281460021300001F008
:104CD00059FF1F4B9F4223D0328BADB284B22B19A8
:104CE0009B1ADF193FB23000FEF714F880463000FF
:104CF000FDF78EFF63004B44EB184344B2681B1A68
:104D00009BB2002A02D0128A9B189BB2181C1BB2BD
:104D1000BB4200DA381C00B2C0BCB946B046F8BD90
:104D200084B2ADB2DFE713220021300001F02AFF88
:104D3000122205000021300001F024FF32228146BA
:104D40000021300001F01EFF014F84B2ADB2CAE76E
:104D500001E0FFFF01000400836870B50500002B2F
:104D600020D01B8A5B429BB259180CB28EB2002C29
:104D700000D170BD2800FCF79BFFAB6821001A8AA8
:104D80002800B6181E8200220123FEF70FF8002229
:104D90000B212800FBF7BCFC0128EAD12800FEF714
:104DA00021FCE6E70023DFE7836870B50500002BF0
:104DB00020D05B8A5B429BB259180CB28EB2002C99
:104DC00000D170BD2800FCF773FFAB6800215A8A40
:104DD0002800B6185E8222000123FDF7E7FF0022BB
:104DE0000B212800FBF794FC0128EAD12800FEF7EC
:104DF000F9FBE6E70023DFE770B505000C00FCF7E0
:104E000057FFA9680B7E9A07920FA24207D0032290
:104E100014409343234328000B76FEF7E3FB70BD59
:104E200070B505000C00FCF743FFA9684B7E1A071C
:104E3000120FA24204D00F221440934323434B7617
:104E400070BDC04670B504000D00FCF731FF0323B0
:104E50000C20A2682B40117E9B00814319431176E0
:104E600070BDC04670B504000D00FCF721FF0323A0
:104E70003020A2682B40117E1B018143194311761B
:104E800070BDC0468368002B03D0187E8007800F5A
:104E900070470320FCE7C0468368002B03D0587E90
:104EA0000007000F70470F20FCE7C0468368002B07
:104EB00003D0188A404200B270470020FCE7C04689
:104EC0008368002B03D0588A404200B2704700200C
:104ED000FCE7C0468368002B03D0588A404200B2EA
:104EE00070470020FCE7C046F8B5CE46474680B57F
:104EF000060003F0CFFA8046002850D00024324F3D
:104F0000B368A2001B683149D5582800FCF7C2FEDF
:104F1000002806D16B8B1A1C1BB2BB4200DA3A1C6C
:104F200017B20134A045EBD110220021300001F06E
:104F300029FE112200218146300001F023FE322299
:104F400005000021300001F01DFE1F4B9F4223D0C1
:104F5000728BADB284B22B199B1ADF193FB23000AD
:104F6000FDF7E8FE80463000FDF758FE63004B4435
:104F7000EB184344B2681B1A9BB2002A02D0528A33
:104F80009B189BB2181C1BB2BB4200DA381C00B243
:104F9000C0BCB946B046F8BD84B2ADB2DFE710225E
:104FA0000021300001F0EEFD112200218146300089
:104FB00001F0E8FD322205000021300001F0E2FDA1
:104FC000014F84B2ADB2CAE701E0FFFF0100040067
:104FD000F0B54546DE4657464E46E0B5836891B08B
:104FE000040015000191002B00D10DE21B7E9B07F0
:104FF0009F0F002B52D000201BF0CAFB0600022F8F
:105000000CD1002805D149E030001BF0C1FB061E81
:1050100044D03000FBF72CFF8442F5D1A368002B6D
:1050200000D1FAE15B8A5B429AB21BB29146984684
:105030002000FFF759FF162202900021200001F006
:10504000A1FDC0B2012800D1EBE1A368002B51D033
:105050001B8A5B421BB2039316220021200001F041
:1050600091FDC0B2012820D1A368002B00D1E8E156
:1050700010215A5E04925B7E1B071B0F032B27D85F
:10508000002B0BD0012F00D1BAE1032F00D1B4E1E6
:105090003000FBF7DDFE032800D1B1E111B0F0BC18
:1050A000BB46B246A946A046F0BD2000FFF7E0FD92
:1050B000A3680490002BDED1012F00D121E3032F40
:1050C00000D138E33000FBF7C3FE0C28E0D1C5E186
:1050D00003221A409346012F13D0032F00D15EE222
:1050E0003000FBF7B5FE5B460C2800D1BFE3002B78
:1050F000D4D0CDE700230393AEE703239B460023E0
:1051000004935F4601237A1E97419B46FFB280219C
:1051100016224902200001F035FD8021C3B2102281
:10512000490220000A9301F02DFD802111220790F1
:105130004902200001F026FD80211222059049023B
:10514000200001F01FFD802113220B904902200056
:1051500001F018FD8021012249020890200001F091
:1051600011FD06B280462000FDF758FD8246200062
:10517000FDF74EFD5B4680215B423340069009936C
:1051800021227B42200049021E4001F0FBFCC0B2FC
:10519000012800D84AE15B46002B00D17DE0534650
:1051A0009AB2029B0C924B449BB299464A4411B26C
:1051B000002972D01622A35E6B801A22A35EEB80B8
:1051C000434698B20A9B012B00D1F4E1089A238B45
:1051D0009B1A9AB2121A01321BB212B2AB806B4602
:1051E0002A801C229B5E6A461420125E50460E9353
:1051F000C31A9B1A981B534658430F922BF0B4FCCA
:1052000003B2824600209B461BF09AFA83001B18CB
:105210005B000120EF2B00DDEEE1834500DCD3E1F4
:1052200053469BB29A466B469B8BB0B29B466B46ED
:10523000998A0D900791E38A5B449AB24B461BB260
:10524000002B00DCA4E10B000C995B44CB1A0D99F8
:105250005B1A51465B1A9BB29A1818B2029B4946D8
:10526000434318000C922BF07FFC53460C9A013BF1
:10527000101A02B2C01800B26A80E8801623E15EFC
:105280000E9BCB189A4200DA37E11A22A35E0F9ADE
:105290009E1BB61A864200DA0BE1002F00D1FDE614
:1052A0006B461D8B049BE918039B9C4661448FB29F
:1052B00009B2002900D1F1E64046638B059A9B1A9A
:1052C000019A9BB2D3801B1A013353801420235EB2
:1052D00013801820235E93806B462C229B5E994698
:1052E0006B4620229B5E069A9B464B465846D31A35
:1052F0001B1A0998181A50432BF036FC03B206000B
:10530000002098461BF01CFA83001B185B0001204C
:10531000EF2B00DD91E1804500DC78E1B6B26B4611
:105320009B8D98466B461B8C02936B469B8C9A46D2
:105330007B1B99B21BB2A78A002B00DC98E0524677
:10534000029B47444344EB1A9B1A9B1B18B29DB225
:10535000049B013E434318002BF006FC0A9A2B1ACB
:105360009BB2BFB2B6B2012A00D171E1DB1901993B
:105370001AB29B191BB20A808B801421655E4946C4
:1053800069188A4200DADDE01A0059461823E45E03
:10539000099BE31A5B1A934200DB7FE6029B002025
:1053A000E41A5346E41A019B24B29C801BF0C8F90E
:1053B00083001B185B000120EF2B00DDF4E1019B53
:1053C000241A00229B5E9C4200DB67E6019B0020C2
:1053D0009C881BF0B5F983001B185B000120EF2BA4
:1053E00000DD2DE2019B241A1C8057E6029B002B56
:1053F00000DDD8E0002A00D150E6039B002B46DDFB
:10540000002301279B4682E600201BF0C1F9A36818
:1054100006000327002B00D004E600239946984697
:1054200006E62000FFF7B2FB039015E6802131224B
:105430002000490201F0A6FBC0B2012800D9AAE66B
:105440002CE6012F00D158E6032F24D03000FBF7C3
:10545000FFFC002304930C2800D019E63000FBF772
:10546000F7FCC31E5A425341DFB201239B464EE66E
:105470000A9B012B00D130E1019A47441780238B0E
:1054800002995B1A5146013B5B1A938006E6049B26
:10549000002BB5DC02E6002304934346002B00DC1E
:1054A00026E1039B002B00DCA1E1012301279B46A1
:1054B0002DE6079A00209B1A0D9A9B1A1EB2EE80C9
:1054C0001BF03EF983001B185B000120EF2B00DD71
:1054D0001AE10222AB5E361A9E4200DBDDE60020B6
:1054E000EE881BF02DF983001B185B000120EF2BC9
:1054F00000DD70E1361A6E80CFE659440BB26B8046
:10550000002099461BF01CF983001B1801225B0048
:10551000EF2B00DD03E10623E85E13004B448342DA
:1055200000DCB2E66B88002099461BF009F9830085
:105530001B185B000120EF2B00DD40E1484400B266
:10554000E880A2E6019B45442DB21D8000201BF09F
:10555000F7F883001B185B000120EF2B00DD18E13A
:10556000019B2D1804229A5E954200DC0DE7019BF9
:1055700000201D881BF0E4F883001B185B0001204D
:10558000EF2B00DD50E1019A2B181BB29380FBE654
:105590006A80638B5B1A013B1B1AEB807DE64346F6
:1055A000002B00DC22E75B46002B00D079E70123CB
:1055B00000279B46ABE50B9AA38A944601386344C7
:1055C0001AB21B181BB209E600201BF0B9F8012221
:1055D00083001B1892465B00EF2B00DC23E60020C3
:1055E0001BF0AEF8830018184000A02150302BF0BB
:1055F000BBFA83B29A4616E600201BF0A1F883009E
:1056000018184000A02150302BF0AEFA05E600201B
:105610001BF096F883001B1801265B00EF2B00DCC3
:105620007DE600201BF08CF8830018184000A021B4
:1056300050302BF099FA86B271E600201BF080F80A
:10564000830018184000A02150302BF08DFA62E63C
:105650005744DF19019A3BB2BF193FB213809780BC
:1056600009981422A15E4A4684468A1862449342ED
:105670006ADB1822A35E5A469A1ABA4200DB0DE58D
:10568000029A00209B1A1CB2019B9C801BF058F8C8
:1056900083001B185B000120EF2B00DDB9E0019BAC
:1056A000241A00229B5E9C4200DBF7E4019B002051
:1056B0009C881BF045F883001B185B000120EF2B32
:1056C00000DC8FE600201BF03BF80A235843A021A2
:1056D00050302BF049FA80B284E64346013B019AF0
:1056E000FB1853441380238B02995B1A9380D5E4F3
:1056F000029B002B00DDD4E6039B002B00DD7FE640
:10570000CCE403239B46FCE400201BF019F8830043
:1057100018184000A02150302BF026FAD9E60020BE
:105720001BF00EF8830018184000A02150302BF019
:105730001BFA0200EFE64346002B00DDB1E6029BB8
:10574000002B00DDADE658E64144019B51440DB20B
:105750001D8000201AF0F4FF83001B185B0001205D
:10576000EF2B4BDC019B28180427DF5FB84200DCDD
:105770007FE7019B00201F881AF0E2FF83001B18BF
:105780005B000120EF2B67DC019B3F183FB29F803D
:105790006FE700201AF0D4FF830018184000A02102
:1057A00050302BF0E1F9DBE600201AF0C9FF83004E
:1057B00018184000A02150302BF0D6F9FFE500204A
:1057C0001AF0BEFF830018184000A02150302BF0C3
:1057D000CBF980B2B2E600201AF0B2FF83001818AD
:1057E0004000A02150302BF0BFF980B282E6049A2D
:1057F000D3179B1ADF0F01239B4688E400201AF081
:105800009FFF830018184000A02150302BF0ACF906
:10581000A8E700201AF094FF830018184000A02188
:1058200050302BF0A1F93AE700201AF089FF8300ED
:1058300018184000A02150302BF096F980B2A2E653
:1058400000201AF07DFF830018184000A02150307E
:105850002BF08AF980B2C5E500201AF071FF0A2307
:105860005843A02150302BF07FF980B28CE7002BF9
:1058700000D0F3E59BE6C04610B5162200210400D7
:1058800001F080F9C0B2012808D0A368002B03D032
:10589000188A404200B210BD0020FCE72000FFF74C
:1058A00075F9F8E710B516220021040001F06AF935
:1058B000C0B2012805D1A368002B06D01020185EC5
:1058C00010BD2000FFF7D4F9FAE70020F8E7C04642
:1058D00070B50C00164905001BF00EFA00280ED01A
:1058E000836A5B421BB22800124923801BF004FA32
:1058F000002811D0836A5B421BB2638070BDAB6825
:10590000002B10D01B8A28005B421BB20949238060
:105910001BF0F2F90028EDD1AB68002B05D05B8AB3
:105920005B421BB2E9E70023DDE70023E5E7C04661
:10593000594D0010A94D0010F0B5C64616000A00DA
:1059400000B504000D0092B032430FD0012B11D0EE
:1059500051491BF0AFF8514920001BF0ABF8002271
:1059600009212000FAF7D4FE01283BD012B080BCF8
:10597000B846F0BD02F050FD070068461BF080F805
:10598000474B00940393002D4CD1002EEED03800ED
:105990001AF0C2FE40003200002180101BF0D2F944
:1059A000C82335005B0098426ED8C8286ED3A36820
:1059B0000B90002B6CD05D8A6D422DB26B42751B33
:1059C00008930993344B6A460193364B0921200012
:1059D0000A950793FAF79CFE0128C7D168461BF089
:1059E0002DF9C3E72000FCF763F9A36829001A8AA0
:1059F000200052191A825A8A92195A8232000123BF
:105A0000FDF7D4F900220B212000FAF781FE0128CE
:105A1000ACD12000FDF7E6FD00220A212000FAF7B4
:105A200077FEA3E738001AF063FE40002A00002149
:105A300080101BF087F9C823A8465B00984221D844
:105A4000C8281DD3A3680B90002B23D01B8A5B4270
:105A50001BB25A42EB1A984643460A930F4B0892E0
:105A60000193104B099209216A4620000793FAF727
:105A70004FFE012800D079E768461BF0DFF884E785
:105A8000C820DFE71800DDE7180090E7C8208EE7A0
:105A9000002395E70022DFE7A94D0010594D0010C3
:105AA0007D4B00106D0D0210F0B5DE4657464E4698
:105AB00045460400E0B583B098460F001600FEF797
:105AC0009BFFA368002B00D190E01B8A5B429AB237
:105AD0001BB291469B464A46BBB29D1A0021162234
