:020000041000EA
:1000000000B5324B212058609868022188439860DF
:10001000D860186158612E4B002199600221596106
:100020000121F02299502B49196001219960352056
:1000300000F044F80222904214D00621196600F024
:1000400034F8196E01211966002018661A6600F04E
:100050002CF8196E196E196E052000F02FF8012189
:100060000842F9D1002199601B49196000215960AB
:100070001A491B48016001219960EB211966A021F2
:10008000196600F012F800219960164914480160C1
:100090000121996001BC002800D000471248134993
:1000A000086003C880F30888084703B5996A0420EC
:1000B0000142FBD001200142F8D103BD02B5186610
:1000C0001866FFF7F2FF186E186E02BD00000240BE
:1000D000000000180000070000035F00212200005C
:1000E000F4000018222000A00001001008ED00E03C
:1000F00000000000000000000000000074B24E7A12
:1001000000200420F7010010C3010010C5010010F9
:10011000C1010010C1010010C1010010C101001097
:10012000C1010010C1010010C1010010C701001081
:10013000C1010010C1010010C9010010CB01001065
:10014000CD010010CD010010CD010010CD01001037
:10015000CD010010CD010010CD010010CD01001027
:10016000CD010010CD010010CD010010CD01001017
:10017000CD010010CD010010CD010010CD01001007
:10018000CD010010CD010010CD010010CD010010F7
:10019000CD010010CD010010CD010010CD010010E7
:1001A000CD010010CD010010CD010010CD010010D7
:1001B000CD010010CD010010CD010010CD010010C7
:1001C00000BE00BE00BE00BE00BE00BEEFF3058054
:1001D000103800BEF2EB887174C1031094C1031093
:1001E0003402001090A31AE700201F49086006C8D7
:1001F00081F3088810471D48006800282FD10DA4FE
:100200000ECC002902D000F012F8F9E71849194A7B
:10021000002000E001C19142FCD1174988471749ED
:1002200088471749884700BEFDE701C901C29A42C5
:10023000FBD3704794C10310C0000020DC0F0020E6
:10024000B0D003100000042000000420B0D0031040
:10025000001004200010042000000000704709482E
:1002600032F07AFE0047000008ED00E0000000D008
:10027000E00F0020ECF80020B92D03103903001026
:10028000AD2E03105756000006005250ABB360531A
:100290009472031006005250861C0302A4720310CD
:1002A000060052505422A29DB07203100500525015
:1002B000DE65F468B0D00310F8B5C04606480749BB
:1002C000091A8B10C90FC91810B5491003D0044B77
:1002D000002B00D0984710BDDC0F0020DC0F002061
:1002E00000000000054B10B5002B03D00449054861
:1002F00000E000BFFFF7E2FF10BDC04600000000B5
:10030000A4360020B86C0310F8B5160005008A88E2
:10031000CB8808884988571C5C1C3F1A641A3FB276
:1003200024B27C432FF008FF300061002FF0DAFE8A
:10033000280021F04DFBF8BDF8B5CE46474680B504
:1003400034F07AF92FF048FE2FF06AFF01F0DCFD5F
:100350009623454D0022454928001B0121F044FA0F
:10036000434C200021F01CFA424B20002360424BFA
:10037000E560636121F046FA21F0ECFA00F010F933
:100380002BF040FC04003D492BF04AFC00230022E6
:100390000921200002F0A4FDFA20000131F046FFFF
:1003A00021F0D8FA00F0FCF801F0DAFD81461422C1
:1003B000142102F0C5FC00220021484607F0F4FF9A
:1003C000002248462E4908F033F8002431F03EF868
:1003D000002530F081FF052021F020FB24F0D6FE1F
:1003E0002000290033F00EF906000F00200029003C
:1003F00033F01EF90022234B33F07FF80022224B0A
:1004000033F054F833F0C4F803B2984600221D4B81
:100410003000390033F071F81C4B002233F046F8FD
:1004200033F0B6F8424601B2484602F025FC2000FF
:100430002900174A174B33F039F8174A174B0400B5
:100440000D0033F09DF8002807D020002900124A43
:10045000124B33F022F804000D002FF0EBFD0520C5
:1004600031F0E4FEB7E7C046C4310020001E002092
:1004700070310020F000F00009030010B86C031088
:10048000FF7F00000000344000405C4000405A40C4
:100490009A9999999999A93F182D4454FB2119408B
:1004A00010B50022C9B207F0CBFF10BD10B509B2DC
:1004B00002F02EFC10BDC04610B509B202F010FCCF
:1004C00010BDC04670B50500006808F017FA0400BA
:1004D00000222721006900F033FB002228216069F7
:1004E00000F02EFB6069002803D02823E35C9B0703
:1004F0000FD40022282101206261635C834363548E
:100500002868A261383107F071FC206903F092FA83
:1005100070BD08F089F8ECE770B5040008F0EEF95A
:10052000051E24D00669002E0CD0002225213000A3
:1005300000F006FB2B69002B04D0002226212000AE
:1005400000F0FEFA00232C61AB61002C0CD00022DD
:100550002721200000F0F4FA2B69002B04D00022A0
:100560002821300000F0ECFA200003F063FA70BD9F
:1005700070B50500006808F0C1F9040021F0EAF93F
:10058000002808D0006960612868002226212061C7
:1005900000F0D6FA70BD21F0DDF90028F2D1F2E7C3
:1005A00010B5002801D0006910BD21F0D3F9002852
:1005B000F9D10020F8E7C04610B5002801D0406905
:1005C00010BD21F0C7F90028F9D10020F8E7C04696
:1005D00010B5002801D0C06910BD21F0BBF900287A
:1005E000F9D10020F8E7C04610B5002801D0006A14
:1005F00010BD21F0AFF90028F9D10020F8E7C0467E
:1006000070B504000D0000281BD0636AA560032BA1
:1006100000D070BDE368186808F0AEF90028F8D182
:10062000E368586808F0A8F90028F2D1E3689868F0
:1006300008F0A2F90028ECD1E368186809F0E2FCA0
:10064000E7E721F087F9041EDFD1E2E710B50028C3
:1006500001D0806810BD21F07DF9FAE7F0B5D646EB
:100660004F464646C0B5A4B098462CAB1B780F0049
:1006700091469A46050008F041F9040021F06AF914
:10068000061E00D1ACE03669B54200D198E0A06901
:10069000A84200D194E0002815D0002121F042FBAF
:1006A00000220021A06902F0E7FA00226021A0697F
:1006B00007F09CFB2823E35C9B0700D5ACE0A66910
:1006C0003000FFF729FF6069A561002804D02823C6
:1006D000E35C9B0700D589E03B00042200210A3B34
:1006E000DBB29A42494128239C46E05C5346033AD8
:1006F00011409043084302211A4063465200884348
:100700001043E0540021280021F00CFB21F022F9D5
:10071000002800D16FE00069002121F003FB0022D6
:100720000021280002F0A8FA21F014F9002868D06E
:1007300000690022002102F09FFA002260212800B7
:1007400007F054FB21F006F9002860D00069002270
:10075000602107F04BFB4B464246134336D06846B8
:1007600021F0C6FA754B00950293754B12A80393BE
:100770004B460B9343465D420C9521F0B9FA236931
:100780001E9512934B461D930E2F0ED86D4BBF0036
:10079000DB599F466C4B1393200021F0F5F80022A3
:1007A00000231A921B9340421C9000222521300006
:1007B00000F0C6F9684621F079FB12A821F076FB1B
:1007C00024B0E0BCBA46B146A846F0BD2800FFF709
:1007D000A3FE5346002BF3D0300007F025FFEFE7D0
:1007E00021F0B8F8061E00D04DE74DE707F01CFFDA
:1007F0000023636170E721F0ADF8002800D08AE79C
:100800008AE721F0A7F8002800D091E791E721F0CE
:10081000A1F800289AD19AE7300007F005FF4EE7CB
:10082000494B2000019321F0AFF800230890099074
:100830000A93BAE7444B2000019321F0A5F8002366
:100840004042089009900A93AFE7404D200001957F
:1008500021F086F800230890099020000A93139550
:1008600021F07EF89BE7394D2000019521F078F8C2
:1008700000234042089009900A931395200021F02C
:100880006FF8002200231C901A921B938DE72E4DC7
:100890002000019521F078F80023089009900A9330
:1008A000139579E7284D2000019521F06DF800237C
:1008B0004042089009900A931395200021F064F8B3
:1008C000002200231C901A921B936EE7204B0022FB
:1008D0000193002308920993FF230A9365E71C4BB9
:1008E000FF221393FF231A921B9300231C935CE7B0
:1008F000154B1393E1E7154B002201930023089257
:10090000099300230A9350E7104B2000019321F034
:1009100027F80023089009900A9346E70B4B200024
:10092000019321F01DF88AE7084B2000139321F072
:1009300017F834E7054B1393A0E7C0467105001084
:10094000C504001064730310AD040010B904001056
:10095000A1040010002300B583B000220021009301
:10096000FFF77CFE03B000BD10B5002806D0AA2317
:100970005B00C358D817C01AC00F10BD20F0EAFFA3
:100980000028F4D10020F8E7F8B54546DE46574682
:100990004E46E0B5050000F0CDFB00280BD0006806
:1009A0008368002B01D0297A98472B7E9A0700D5BF
:1009B000A9E0DB0751D468688268002A00D19EE074
:1009C000937E9B0600D19AE0D368002B00D1AFE064
:1009D00002218A46013988467F3100248B461968F6
:1009E000002904D008269E571F7A002E0BDB013405
:1009F000937E9B069B0EA3421DD96100D368091903
:100A000089005B18EBE7802F04D05E46B7432E7A4F
:100A1000B742ECD15B682800EB60884752462B7EDA
:100A20001A4200D06FE042461A4216D1686801347B
:100A30008268002ADCD10368002B03D116E01B6812
:100A4000002B13D01C69002CF9D0002218002900BB
:100A5000EA60A0472B7EDB0706D50020F0BCBB4632
:100A6000B246A946A046F8BD68688268002A33D01D
:100A7000937E9B0630D0D368002B2DD0022189466F
:100A80000139002488461968002909D008269E5794
:100A90001F7A002E04DB002F0ED02E7ABE420BD020
:100AA0000134937E9B069B0EA34215D96300D16847
:100AB0001B199B00CB18E6E75B682800EB608847B2
:100AC0004A462B7E1A421ED142461A42C5D1686858
:100AD00001348268002AE4D14368002B13D02A7EB7
:100AE000520710D42A7A233A012A0ED86B602800C4
:100AF000FFF74AFF013843425841C0B2AEE70368EE
:100B0000002B9FD1E8E70120A8E78021C90101F06F
:100B1000D5FA0028F7D02B7A113BDBB21B2B04D877
:100B2000064ADA401300DB07EDD46B685B68DDE74B
:100B30000368002B00D085E79DE7C046FF270F0B19
:100B400010B588B0002817D06B46019019720023A9
:100B500003936B46049207221B7E084C93436A461C
:100B6000137623680090684605932260FFF70CFF18
:100B7000059B236008B010BD0120FBE7E831002091
:100B800010B50C00002813D00068002803D10DE038
:100B9000006800280AD00369002BF9D00022210048
:100BA000E26098470120237E984310BD0120FCE7B6
:100BB0004B681868E9E7C0460068704740687047AE
:100BC000037A7F201840704700697047C0687047FB
:100BD0000A4B1B68002B10D0012105E01A688242E5
:100BE00005D05B69002B08D05A688242F6D11A7E84
:100BF0000A431A765B69002BF6D17047E831002072
:100C0000F0B5C64600B507000E001500984601F085
:100C10006BFA3F210800BC68A27E93069B0E01334D
:100C200018408A43410002430918A276E06889000F
:100C300022F01CFBBA68E060D368002B0ED0907ED7
:100C40008006820E400E801880000C38181843462B
:100C500006600572436080BCB846F0BDFEE7C04642
:100C6000037A013B0F2B01D8006970470020FCE795
:100C7000027A0300143A0020052A00D81869704748
:100C8000037A132B00D0704702691388181C1BB21B
:100C90008B4201DB1080F6E7081C1080F3E7C046AA
:100CA000F0B54F464646D646037FC0B50500884698
:100CB0001700DA072FD4C668002E00D0A6E08847B8
:100CC00081464B46002B26D000234E469A4630687C
:100CD00001F002FA000624D531002800B8470600CA
:100CE000814518D0002EF2D12B7F1B0713D5534618
:100CF000002B10D02800C047002306009A46F1E7D9
:100D00004346002B00D17DE042460F214846FFF7C5
:100D100017FF01283CD00020E0BCBA46B146A846E7
:100D2000F0BD3468002C05D110E0200007F00EFE65
:100D3000041E0BD00121200001F0C0F90028F4D0DE
:100D40000121200001F0BAF90028C5D1EB68B342B7
:100D5000E1D0002B20D01B680020994620F050FEE7
:100D6000041E67D000230027984604E0200020F0EE
:100D700047FE041EC4D0200000F0E2F9636D9D42DE
:100D8000F4D1022846D027000428EFD1A046EDE791
:100D9000EB68186802F04EFE33680020EE6098465B
:100DA00020F02EFE041E4AD00026002704E020007A
:100DB00020F026FE041E10D0200000F0C1F9636D63
:100DC0009D42F4D102282FD026000428EFD1200024
:100DD00020F016FE2700041EEED1002F26D03A0088
:100DE0000E214046FFF7ACFE012800D093E7EB68E8
:100DF000186802F01FFE2B69002B01D028009847CD
:100E0000012089E7002F15D0B8467DE70123B146C0
:100E10009A4661E7A0460F2142464846FFF790FEFA
:100E2000012800D077E7B3E72700D8E7002E06D0E7
:100E30003700D4E7002020F0E3FD804664E700207F
:100E400020F0DEFD0700CAE70822037F70B51D070A
:100E500013430400ED0F03775B0712D40F4A1049C8
:100E6000FFF71EFF6369002B04D0002802D1012187
:100E7000200098470822237FED0093432B432377DC
:100E800070BD084A0849FFF70BFF6369002BF1D0DA
:100E90000028EFD1002120009847EBE7A12F021096
:100EA000892F0210A92F0210952F021010B52021B2
:100EB000014821F0A3FF10BD0C1B0020014B186856
:100EC0007047C04640310020F8B5CE46474680B551
:100ED000060001F003F9051E1ED0C368002B02D0E6
:100EE0001B68B3421CD0280022F04EF8041E04D127
:100EF00012E022F055F8041E0ED0236821002800CD
:100F0000B342F6D121F0E2FF200022F093F9B3685A
:100F1000002B01D000229A60C0BCB946B046F8BD93
:100F20000122037F1A4201D093430377280022F065
:100F30002BF8EB6883420BD02800FFF785FFEB68A6
:100F4000002BD0D01B689E42CDD10023EB60CAE7B6
:100F5000280022F01FF8EB689842EDD103680020CA
:100F6000994620F04DFD00230400984600270028F4
:100F700005D120E0200020F043FD041E0CD020000D
:100F800000F0DEF8636D9D42F4D102280CD0A0463B
:100F90000428EFD12700EDE7002F07D03A000F21FA
:100FA0004846FFF7CDFDCAE72700F7E74346002B89
:100FB00001D04746F2E7002020F022FD0700EDE7D0
:100FC00070B504000D00002810D00800FFF77CFF6A
:100FD000200021F0D9FF011E05D108E0200021F0FA
:100FE000DFFF011E03D00B68AB42F7D170BD2800B4
:100FF00001F074F800281AD0AB689A68002A03D070
:10100000D2681268954210D020009C6021F046FF03
:10101000061E09D00560200021F0B6FF8642E5D10A
:101020002000FFF711FFE1E7FEE7FFF70DFFAB68D8
:10103000002BE9D1280001F057F8AB68E4E7C0467F
:1010400010B50400064A0749FFF72AFE6369002B22
:1010500004D0002802D101212000984710BDC046CD
:10106000A12F0210892F0210F0B5C646050000B569
:1010700000283BD0037F9A07D20F8A4236D0012244
:101080000A40022152008B4313430377C368002BAD
:101090002CD01F68002F29D0002020F0B1FC0023A5
:1010A000040000269846002805D12CE0200020F0FE
:1010B000A7FC041E10D0200000F042F8636D9D4292
:1010C000F4D102281DD026000428EFD1200020F002
:1010D00097FCA046041EEED14346002B0DD042469D
:1010E0000E213800FFF72CFD012802D080BCB84645
:1010F000F0BD380002F09EFCF8E7002E03D0B046A9
:10110000EDE7A046EBE7002020F07AFC8046E6E71A
:10111000002804D0C068002800D000687047002074
:10112000FCE7C046002803D0007F8007C00F70474F
:101130000020FCE7014B18687047C04604360020C9
:10114000002802D00368187870470020FCE7C046EA
:1011500070B50C00002825D0022243791343437157
:10116000334B1B68834213D003681B78013B012B70
:1011700000D970BD002C3DD0436BA3420FD0836AD1
:10118000A34209D0C36AA342F3D10023C362F0E7AC
:101190000022284B1A60E7E700238362F2E700236E
:1011A0004363ECE7002020F02BFC00281ED0002C2D
:1011B0002BD00225002603E020F022FC002815D0C9
:1011C00043792B43437103681B78013B012BF3D810
:1011D000436B9C4216D0836A9C4210D0C36A9C42E7
:1011E000EAD1C66220F00CFC0028E9D10022114BA4
:1011F0001A60BEE7002344638462C362B9E7002338
:101200008362EBE700234363E5E70224002503E064
:1012100020F0F6FB0028E9D04379234343710368AB
:101220001B78013B012BF3D845638562C562EFE76C
:1012300004360020083600200122437910B593437C
:101240004371040020F0F6FBE06420F0F3FBA0649F
:1012500010BDC046002810D0022203681B789343BB
:10126000012B04D001235B420B804B807047082286
:10127000835E0B800A22835EF7E700230880F4E791
:10128000031E0BD002210268002012788A43012A33
:1012900003D14332985C0007000F70470020FCE741
:1012A000031E08D002210268002012788A43012A16
:1012B00000D1186B70470020FCE7C04600230B806C
:1012C0004B8000280BD0022203681B789343012B2C
:1012D00005D11822835E0B801A22835E4B807047F3
:1012E000002803D008224379134343717047C04656
:1012F000014B18687047C04608360020030070B5DF
:1013000000281BD0032916D000240C2911D1262235
:10131000805E1B685B7E002810D064250024ED1AD7
:1013200024186421684331F049FE00B224B2002839
:10133000F6D1200070BD2422805EEAE70024F8E7A1
:10134000F0B5DE464E4645465746E0B5A5B0050029
:10135000FFF736FC06002800FFF72EFC0400122ED3
:101360000BD0152E1BD0182E00D1A5E025B0F0BC57
:10137000BB46B246A946A046F0BD2800FFF724FCB4
:1013800003780500022BF1D017220021200005F080
:1013900021FE061E00D158E102232B70E6E728004B
:1013A000FFF766FC04AD070028000BF09BFD34221C
:1013B0000021200005F00EFE002804D02322012188
:1013C000AB5C0B43AB542A000021200001F004F871
:1013D00069220021200005F0FDFD6A22060000219F
:1013E000200005F0F7FD00218846A28AB3B2E18A09
:1013F00080B2D21A091A12040904120C0A43218B72
:1014000012AE5B18618B1B04401800041B0C0343D5
:10141000390030000292039301F04AFBE04B3200A6
:1014200073604346B36002ABF360994643461A21AA
:10143000200035617363FFF783FB17220021200032
:1014400005F0C8FD002803D00022AB5E002B0AD1B6
:101450004A46290038000BF06BFD32001B212000AA
:10146000FFF76EFB82E72B694A469B4643462900FD
:101470002B6138000BF05CFD182021F033FF2100B8
:101480000023EA5E1431002382460BF019FA210092
:1014900021315046FF310AF04FFE5B46002BDCD075
:1014A00043464246EB702223EA540833EA540C3395
:1014B000EA545B462B61CBE72800FFF7D9FB02AB70
:1014C00007001A0020006946994605F0BDF96846F4
:1014D00020F0DCFD002804D1484620F0D7FD00288C
:1014E00057D004AD28000BF0FDFC80212122200004
:1014F000490205F06FFDC0B2E870022800D930E162
:10150000802131222000490205F064FD2226C0B26C
:10151000A855022800D917E1802145222000490260
:1015200005F058FD3626C0B2A855022800D9FEE0C5
:1015300080212000490206F0C1FEFC2800D8B4E05A
:1015400036232221EB5CEA78695C1A430A4320D0F7
:1015500080235B0219000B222000984605F03AFD1B
:1015600012AE28803900300001F0A2FA8C4B684698
:1015700073600223B36043463561736320F086FDD8
:10158000002800D00EE1484620F080FD002800D061
:10159000ABE017220021200005F01CFD002800D040
:1015A000B7E034220021200005F014FD002800D10E
:1015B000DCE604AD28000BF095FC00262A23EE7033
:1015C000AE76EE540C33EE542A002000002100F0D9
:1015D00003FF69220021200005F0FCFC80466A22FE
:1015E0000021200005F0F6FC4346A28AE18A9BB266
:1015F00080B2D21A091A12040904120C0A43218B70
:101600005B18618B1B04401800041B0C034339005A
:1016100012A80292039301F04BFA614B12AA1393A2
:10162000012314934B461A212000159316951F96FB
:10163000FFF786FA4A46290038000BF079FC1B2197
:10164000200012AAFFF77CFA90E60B22002120006E
:1016500005F0C0FC6922002107B2200005F0BAFCA9
:1016600080466A220021200005F0B4FC4346A28A8D
:10167000E18A9BB280B2D21A091A12040904120C30
:101680000A43218B5B18618B1B04401800041B0C60
:101690000343129268683A0012A9139320F082FF64
:1016A000002810D101232B7060E62221EB78434300
:1016B0001B12DAB243431B12DBB2EA706B541431D3
:1016C0006B54190041E721220021200005F082FC23
:1016D000C0B2FC28E6D960220021200005F07AFC87
:1016E000C0B2FC28DED92E7040E64B463200F360D3
:1016F0001A212000FFF724FA4B464A4629003800F9
:10170000F3600BF015FC32001B212000FFF718FAE4
:101710003FE720002130FF300AF0B8FD051E00D160
:101720003FE70AF057FE280021F084FE39E78021C8
:1017300040222000490205F04DFC00B2E885002857
:1017400017DC0023AB55F3E680213222200049024A
:1017500005F040FC00B22884002819DC0023AB55BA
:10176000DAE6802120222000490205F033FCA8801F
:10177000C6E6802143224902200005F02BFC80218F
:10178000A88644222000490205F024FCA885CFE663
:10179000802130222000490205F01CFCE883BBE6D2
:1017A0004C7403106B463200F3601A212000FFF7DF
:1017B000C7F96A46290038000BF0BAFB32001B213A
:1017C0002000FFF7BDF9DEE610B50C000800FFF7BA
:1017D000FFF9002005F0F8FB0021164A200005F073
:1017E00023FF012005F0F0FB0021200020F09AFAF1
:1017F000A368002B1DD09A68002A05D02000FFF7AF
:1018000063FBA368002B14D01868002804D021F0D3
:1018100011FD0022A3681A60D868002804D021F0C6
:1018200009FD0022A368DA60180021F003FD0023FF
:10183000A36010BDFFFF0F00F0B5C6464F680C0057
:1018400000B5002F25D0380004F03EFA060038001D
:1018500003F068FD8046102200213800FD8A05F063
:10186000B9FB42462B189B1A9BB2E382013B638370
:10187000122200213800BD8A05F0ACFB2818801B1D
:1018800080B2A082044B01382083E36180BCB8465B
:10189000F0BD024BF9E7C04676BB000076180000A9
:1018A000F0B557464E46DE464546E0B5048C060088
:1018B0000F008DB08C4207D00A000184210006F091
:1018C000ABFB8346002806D10DB0F0BCBB46B24648
:1018D000A946A046F0BDA020800021F003FDA02174
:1018E0008900099022F08EF8738C9B059B0E61D0C5
:1018F000FB43049300239A460A940B975446B04640
:101900005F469946099B043308934346DB68E5002C
:101910009A46AA44534658680002000A06F0B6FCEC
:101920004346DB6803905B19060058680002000A12
:1019300006F0AEFC049B029033422CD153460222A7
:10194000DB791A4227D153461B681E689A88D979D9
:101950008B4B9A4242D000291DD0012916D08A0013
:101960000020B21803E001300232814213D91588F9
:10197000AB049B0C672BF6D12BB2002B0BDB6D0459
:1019800000D5D9E0800083599B463CE093049B0C32
:10199000672B00D1E0E043465B8C01349B059B0E36
:1019A0009C42B2D34B46BB4646460A9C0B9F002B3B
:1019B00000D0A8E0099821F03DFD5B46012B00D145
:1019C000BFE0032B00D1C0E0022B00D07CE7300049
:1019D00002F030F8300001F073F875E70029DAD032
:1019E000002003E0013008368142D4D93588AB04A9
:1019F0009B0C672BF6D12BB2002BCCDB6D0400D5F2
:101A00009AE073689B465B461A681388002BC2D025
:101A10004B4600261000002B41D053460793434607
:101A200006933B0035004F46994605940026BA467A
:101A3000A8463700089C03E001371434574525D0E9
:101A40002568280006F022FC0600280006F020FC8D
:101A50005B461A684346A588D118D35A9D42EBD1FC
:101A6000029B8342E8D1039BB342E5D83E00454642
:101A70005746564578D00235535B002BD6D1069B8E
:101A8000059C98464B46D1461F002CE0069B4646D7
:101A90009846079B4F460800D1469A46059C4B4600
:101AA00009999B008C4659464B44C9689B00634486
:101AB0001980594609690236598059468968D960A2
:101AC00001881981594649681961514649680902D6
:101AD000090A596001239C46935BE144002B02D024
:101AE0004B46202B99D143465B8C01349B059B0EC2
:101AF000A34200D856E74B46202B00D005E74646C8
:101B0000BB460A9C0B9F4B46099A9B0090464B4450
:101B10009B0098443B00150047469846686806F0CD
:101B2000B7FB00950100434622003000143506F053
:101B300093F9BD42F2D13DE7672023F00DF98346CA
:101B400061E7300001F076FFBEE6F02130000C4A7C
:101B5000090305F027FCB7E613B2002B00DA1AE7F9
:101B60005204E9D4B3464EE7079B08009A46069B09
:101B70002E0098464B46059CB9461F008FE7C0468D
:101B8000FFFF0000F0B5080085B00E00FFF718F861
:101B900005003000FFF712F804002A2D0BD8C04BC7
:101BA000AD005B599F462023018C0B4203D0994323
:101BB0002000FFF775FE05B0F0BD3000FFF7C0FB59
:101BC000F9E7002100F0FEFE01003000FFF758F8B1
:101BD000F1E70122002105F0FDF9042200210600B1
:101BE000200005F0F7F9092200210700200005F088
:101BF000F1F90A2205000021200005F0EBF980B27E
:101C000000280FD1EDB2002D0CD1A64B36B29E426A
:101C100008D03FB29F42CED104E022220221835C51
:101C20000B438354200001F023F9C4E7092200216B
:101C300005F0D0F90A2205000021200005F0CAF9BC
:101C400080B2002802D1EDB2002D02D0200001F0B8
:101C50000FF9200006F090FE061EACD00025A36808
:101C6000AA001B680135D05801F002F9AE42F6D146
:101C7000A1E706F081FE061E9DD00025A368AA00FC
:101C80001B680135D05801F0F3F8AE42F6D192E767
:101C90002021038C1943994200D18CE788E7202347
:101CA000018C0B4200D0B0E03000FEF7D9FFFFF707
:101CB000F7FA002800D07EE7E3691B0700D47AE733
:101CC0000122238C1A4200D0D3E00121194389B2AA
:101CD0008B4200D1B3E02000FFF7E2FDAFE04021EE
:101CE000038C19438B4200D165E761E74023018CE7
:101CF0000B4200D08DE0200003F0ECFA022800D067
:101D000059E76946200002AA04F09EFD69462000BA
:101D100001F06CFE200002A901F068FE4BE7C369E8
:101D20001A077AD4812212011340934200D042E76D
:101D300000F03EFB002800D03DE7200003F0C4FF88
:101D40000700200003F0D6FF05003000FEF73CFF3F
:101D50000378122B00D18FE0112B00D1A4E0132BBC
:101D600000D1B4E0142B00D025E7200003F0BCFA2A
:101D7000800700D198E0002F02DC002D00DC93E00A
:101D8000200003F0BBFA0500200001F069F90322EE
:101D9000C31713401B189B10E91A0022200009B238
:101DA00004F0FCFC07E7C3695B054ED4A06800287B
:101DB00000D08068FFF7B6F90500FFF7BBF90028EF
:101DC0004DD0FFF7BDF9FD23811E19404B4259410B
:101DD000238C890002311943002D10D18B4203D08E
:101DE0002000FFF75DFD218C08230B4200D1E2E6C5
:101DF000DDE60E23018C0B4200D1DCE6D7E608229B
:101E00001143994200D1D6E6D2E69943FFF748FD47
:101E10004AE79943FFF744FD6DE73000FEF7D4FE33
:101E2000037802211A008A43112A12D01A00123AAA
:101E30008A43D2B2002A16D00A2B00D1BBE6002278
:101E40001C212000FEF77CFEB5E6012104F0DEFC3B
:101E5000ACE7238C013919438B42F0D03BE73000CB
:101E6000FEF7FEFEADE70123218C0B42E7D099433C
:101E700031E7934319002EE7200003F049FA0500EB
:101E8000200001F0F3F80323C11719400918891045
:101E900049190022200009B204F09CFC8BE6C046E0
:101EA000A0730310D1270000200003F031FA0500D1
:101EB000200001F0DBF80322C31713401B189B100E
:101EC000E91A0022200009B204F084FC73E6200025
:101ED00003F00AFA8007CFD0002F01DC002DCBDD04
:101EE000200003F00BFA0500200001F0B9F80323ED
:101EF000C11719400918891049190022200009B298
:101F000004F04CFC57E6C04610B5124C2378002B69
:101F10001ED121F05FF923F02BF920F0B5FD1FF061
:101F2000BFFEFEF7C3FF08F0C5F805F045F8B42181
:101F30000948490020F062FF5C21084820F05EFF5C
:101F400006F086FD0BF0B0FC14F094FE0123237024
:101F500010BDC046DCF80020701A0020501B002085
:101F6000054B10B50100180000F020F9040000F046
:101F700095F9200010BDC0464C740310F0B585B033
:101F800004000D0000F05AFF0600EB0727D4E369B8
:101F90002B43E361200000F051FFB04207D1C02382
:101FA0005B041D4203D1ED060BD405B0F0BD20004B
:101FB00006F0CCFC00F05CFF200000F059FFED06BD
:101FC000F3D56946200002AA04F03EFC69462000D1
:101FD00001F00CFD200002A901F008FDE5E720005A
:101FE00001F028FDE3692B43E361238C9B07D1D5E6
:101FF000A368002BCED09F68002FCBD03800FFF70E
:102000001FF83800FFF784F80028C3D001F012FD54
:10201000C0E7C04670B584B004000D0000F00EFFAC
:102020000600EB0614D4E369AB43E361EB0721D46C
:10203000200000F003FFB04203D1C0235B041D4227
:1020400004D0200006F082FC00F012FF04B070BD46
:1020500002AA6946200004F0F7FB6946200001F05F
:10206000C5FC200002A901F0C1FCE369AB43E361B8
:10207000EB07DDD5200001F0DDFC200000F0DEFEE6
:102080000028D5D0200006F061FC00F0F1FE200011
:1020900000F0EEFECCE7C046038C10B519438B422E
:1020A00001D0FFF7FDFB10BD038C10B51A008A4369
:1020B000194202D01100FFF7F3FB10BDC0690840C0
:1020C000401A43425841C0B27047C046C0690840F8
:1020D000431E9841C0B27047008C7047806800284A
:1020E00000D080687047C046836810B50400002B9C
:1020F00000D010BD0A4A1C2013680133136021F080
:1021000077F8A06000280AD01C2121F07BFCA16890
:10211000044B0A8B1A40044B13430B83E9E7FEE799
:10212000A0F80020FCF0FFFF030F0000002805D0FE
:102130000068401A43425841C0B270470020FCE793
:10214000F0B5C646056804002E6800B5002E23D001
:102150003768002F19D03B6807609846002B0DD0D8
:102160001B68002B02D00360FFF7EAFF43462360A1
:102170005B68002B02D02100404698477B682760AF
:10218000002B02D021003800984773682660002B8E
:1021900002D02100300098476B682560002B02D0E8
:1021A00021002800984780BCB846F0BDF8B507006C
:1021B0000E00031E5ED0374C02E01B68002B06D0D9
:1021C0009A69150025402242F7D01203150C280009
:1021D00021F00EF8041E5AD0290021F013FC2760CC
:1021E0006660002E20D0B568002D3ED028680028FB
:1021F00010D0696801316960890021F037F82649FB
:10220000B2688C4653682860126863449B009C50F7
:102210002000F8BD043020F0EBFFB36828601A6896
:10222000146001225A60F3E71FF094FB051E2BD0C7
:10223000C068002820D0696A01316962890021F0F4
:1022400015F8154A6B6A944663449B00E8601C507D
:102250000023002063611FF083FB013820830020EE
:102260001FF092FB01386083D2E73000FFF73CFF9C
:10227000B568BBE70025AAE7043020F0B9FF0123C9
:10228000E86004606B62E3E7200020F0D3FF0024E5
:10229000BEE7C046F0FF0F00FFFFFF3FF0B5C646A8
:1022A000040000B500F0E4FD002004F08DFE2000E5
:1022B00007F0A8FE25682E68002E24D03768002F6E
:1022C0001AD03B6827609846002B0ED01B68002B65
:1022D00003D020002360FFF733FF434623605B6891
:1022E000002B02D02100404698477B682760002BD6
:1022F00002D021003800984773682660002B02D076
:102300002100300098476B682560002B02D0210027
:1023100028009847012004F057FEF0212000194AB8
:10232000090305F03FF8200000F03CFFFEF7C6FD72
:1023300000280ED023680C21002B03D109E01B6874
:10234000002B06D00D001A7E15401142F7D0042D47
:1023500013D0200006F0FAFA051E0BD0220022212D
:10236000FEF7EEFB220023212800FEF7E9FB200008
:1023700001F060FB80BCB846F0BD2100FEF720FEF6
:10238000E7E7C046FFFF000010B50400006883685F
:10239000002B09D02100984723681868002806D030
:1023A00083682060002BF5D100680028F8D110BDAB
:1023B00003680321002B03D10CE01B68002B09D01C
:1023C00008001A7E10401142F7D0013843425841AC
:1023D000C0B270470020FCE7F0B5C64600B5060065
:1023E0000D00140005F06AFF0700002D13D002282D
:1023F0000BD800232222E370A376A3540832A354FF
:102400000C32A35480BCB846F0BD682229003000CD
:1024100004F0E0FDA0700B222900300004F0DAFD8A
:10242000E3782080002B40D132222900300004F0D4
:10243000D1FD00B22084002805D022239846E35C19
:10244000002B00D0D5E035222900300004F0C2FD79
:1024500000B2E084002805D02A239846E35C002BD4
:1024600000D0EBE0A37E002B00D08FE0362398460F
:10247000E35C002B55D1FC2FC4D82222E3787B43A8
:102480001B12E370A37E7B431B12A376A35C7B43EA
:102490001B12A3540832A35C7B431B12A3543623A4
:1024A000E25C57433F12E754ACE721222900300099
:1024B00004F090FDC0B2E0700228B5D920222900B6
:1024C000300004F087FD29000200300005F084FD93
:1024D0002900A0802622300004F07CFD011E03D0DC
:1024E000437A5B0700D0C6E023222900300004F0C5
:1024F00071FD07230200E07B1A4098431043E0730C
:10250000034200D0BCE027222900300004F062FD25
:10251000072338220340E07BDB0090431843E0733D
:1025200082E740222900300004F054FD00B2E0852B
:102530000028A0D04346E35C022B9CD94522290009
:10254000300004F047FD4346C0B2E054022892D95F
:1025500041222900300004F03DFD4222290020865E
:10256000300004F037FD432229006086300004F07B
:1025700031FD44222900A086300004F02BFD290003
:102580000200300005F028FDA08574E7282229000C
:10259000300004F01FFD2061002800D166E72922E9
:1025A0002900300004F016FDC0B2A076022800D841
:1025B0005CE7206908F086F9022800D183E02A222E
:1025C0002900300004F006FD29000200300005F06B
:1025D00003FD2B2229002083300004F0FBFC2C2279
:1025E000E0762900300004F0F5FC431E9841207786
:1025F0003CE731222900300004F0ECFC4346C0B235
:10260000E054022800D81EE733222900300004F0ED
:10261000E1FC23221F233E210340A05C5B00884392
:102620001843A05429000D32300004F0D3FC2900D7
:102630000200300005F0D0FCE08304E737222900D7
:10264000300004F0C7FC4346C0B2E054022800D872
:1026500008E738222900300004F0BCFC36222900AB
:102660002085300004F0B6FC29000200300005F09F
:10267000B3FCA084F6E60A22A01D20F06DFFD3E68D
:1026800020222900300004F0A5FC290002003000BF
:1026900005F0A2FC22222900E080300004F09AFC20
:1026A00029000200300005F097FC242229006081F7
:1026B000300004F08FFC252220722900300004F045
:1026C00089FC20731FE757222900300004F082FCA8
:1026D000552229006061300004F07CFC29000200D2
:1026E000300005F079FC2083C0E6C046F8B5140040
:1026F000562206000D0004F06DFCC0B2A076022840
:1027000000D8F8BD2900300005F0D8FD02283AD9DC
:10271000A27EFC2803D842431212D2B2A276022A29
:10272000EFD955222900300004F054FC29000200A2
:10273000300005F051FC58222900A081300004F03F
:1027400049FC59222900A082300004F043FC5A229F
:1027500060822900300004F03DFC07270300A07FC1
:102760003B40B8431843A077002D0FD157222900D2
:10277000300004F02FFC5B2220602900300004F0C0
:1027800029FC2077BDE70023A376BAE76822290059
:10279000300004F01FFC3822A37F0740FF00934362
:1027A0003B43A377E2E7C04670B51400462205001C
:1027B0000E0004F00FFCC0B2E072022800D870BD19
:1027C0003100280005F07AFD022835D9E27AFC288C
:1027D00003D842431212D2B2E272022AEFD9802306
:1027E0005B0423602B8BAA8A01339B1A1BB2DA0F7E
:1027F000D3185B10A3806B8BEA8A01339B1A1BB240
:10280000DA0FD3185B10482231002800E38004F06F
:10281000E1FBC0B2A072002811D1002ECFD06822F7
:102820003100280004F0D6FB0F220300207B134068
:10283000904318432073C2E70023E372BFE74722A7
:102840003100280004F0C6FB31000200280005F02A
:10285000C3FB2081E1E7C04670B514004E2206009C
:102860000D0004F0B7FBC0B22072022800D870BD82
:102870002900300005F022FD022845D9227AFC28E3
:1028800003D842431212D2B22272022AEFD949224D
:102890002900300004F09EFB00B260800028E6D0E2
:1028A0004D222900300004F095FB29000200300081
:1028B00005F092FB4A2220802900300004F08AFBB8
:1028C00000B2A080002822D14C222900300004F060
:1028D00081FB0421431E9841637A82008B4313439A
:1028E0000822C000934303436372002DBFD06032BF
:1028F0002900300004F06EFB03220300607A1340CD
:10290000904318436072B2E700232372AFE74B2273
:102910002900300004F05EFBE080D5E770B51400BC
:10292000502206000D0004F055FB00B26080002824
:1029300000D170BD53222900300004F04BFBC0B21F
:1029400020730228F5D92900300005F0B7FC0228D1
:1029500035D9237BFC2803D843431B12DBB22373F6
:10296000022BE6D952222900300004F033FB290063
:102970000200300005F030FB542229002080300096
:1029800004F028FB5122A0602900300004F022FB53
:102990000422431E9841637B800093430343637387
:1029A000002DC6D064322900300004F013FB03224E
:1029B0000300607B1340904318436073B9E7002322
:1029C0002373B6E7F8B5402204000D0004F002FBC3
:1029D00006B2002E1FD135222900200004F0FAFA99
:1029E00006B20027002E4FD169222900200004F0F2
:1029F000F1FA6A22290006B2200004F0EBFA00B2D4
:102A0000031CB04200DA331C1AB2002A01DDFF18A1
:102A10003FB23800F8BD45222900200004F0DAFA60
:102A2000C0B20228D7D943222900200004F0D2FAEC
:102A3000F30F9B1901305B101B1841222900200065
:102A40009EB204F0C7FA422207B22900200004F027
:102A5000C1FA03B2DA179B185340FA17BF18574050
:102A6000B9B21A1C9BB28B4200D23A1CB21817B2F0
:102A7000FF43FF17174029003522200004F0AAFA6F
:102A800006B23FB2002EAFD037222900200004F05A
:102A9000A1FAC0B20228A7D938222900200004F0E8
:102AA00099FA00B28019B84200DA380007B29BE701
:102AB00070B50D000400482120F0A4FF256070BD12
:102AC00070B58368040082B0002B2DD016269E5F5F
:102AD0006B469D1D00232A00132120002B80FEF74A
:102AE0002FF80022AB5EB34205D1A368002B11D0B2
:102AF000DE8202B070BD200000F09CFF0022AB5EC1
:102B0000A268002A07D0D3829E42F2D0200000F0B3
:102B100091FFEEE73300002BF6D02000FFF7E4FA38
:102B20000022AB5EA268EEE70026D1E78368002BA7
:102B300002D01620185E70470020FCE78368002B47
:102B400002D0987E800970470020FCE7F0B5DE4691
:102B50004E4645465746E0B587B0029103920021A4
:102B60006E22040004F036FA03B29B4606006D2282
:102B70000021200004F02EFA5B4605B2002B03D1A1
:102B80000133FF339D4233D06F220021200004F037
:102B900021FA05AF702200213880200004F01AFAD3
:102BA00003B298460022BB5E80229A46C02351465B
:102BB000DB0192010B40934242D0A38A0193E38A46
:102BC00080229946C0234146DB0192010B4093428B
:102BD0001FD0019B53443B804B4643447B80039B67
:102BE000002B0CD13B002A00594602981FF07CFDB7
:102BF00007B0F0BCBB46B246A946A046F0BD802057
:102C00007642290033B240029B4630F0D7F905B234
:102C1000E8E7FA231748DB0008409842D9DCFA239A
:102C20009B00984200DD181A4A46638B64210133E9
:102C30009B1A1BB2584330F0C1F903B29846C8E75B
:102C4000A38A0C480193FA230840DB009842B6DCC3
:102C5000FA239B00984200DD181A238B019A013356
:102C60009B1A1BB25843642130F0A8F903B29A466C
:102C7000A5E7C046FF9FFFFF70B582B00D001600AC
:102C80000023072101AA040005F096F8012817D0B7
:102C9000002804D100222900200005F06DFB00234C
:102CA0000821200001AA05F087F8012813D0002888
:102CB00004D100223100200005F066FB02B070BD97
:102CC000019BAB42E6D100230821200001AA05F0B8
:102CD00073F80128EBD1019BB342EAD1EEE7C0467D
:102CE00030B583B00D000023072101AA040005F0D0
:102CF00063F8012808D0002804D100222900200010
:102D000005F03AFB03B030BD019BAB42F5D1F9E7CA
:102D100030B583B00D000023082101AA040005F09E
:102D20004BF8012808D0002804D1002229002000F7
:102D300005F02AFB03B030BD019BAB42F5D1F9E7AA
:102D400070B582B00D0016000023012101AA040015
:102D500005F032F8012817D0002804D100222900FC
:102D6000200005F0F1FA00230421200001AA05F05B
:102D700023F8012813D0002804D1002231002000BC
:102D800005F0F2FA02B070BD019BAB42E6D1002320
:102D90000421200001AA05F00FF80128EBD1019BC6
:102DA000B342EAD1EEE7C04630B583B00D00002350
:102DB000012101AA040004F0FFFF012808D0002827
:102DC00004D100222900200005F0BEFA03B030BD76
:102DD000019BAB42F5D1F9E730B583B00D0000237C
:102DE000042101AA040004F0E7FF012808D000280C
:102DF00004D100222900200005F0B6FA03B030BD4E
:102E0000019BAB42F5D1F9E770B50400222589B2E8
:102E1000002205F01DFB0122635D20001343635572
:102E200005F062FD0422435D1343435505F066FD42
:102E30004068002801D022F0D3FA70BD10B50B49CC
:102E40000400FFF743F9002801D0002010BD200046
:102E500005F07CFD0028F8D00A22002104F0BAF821
:102E60000004431E9841C0B2F0E7C04601000600CE
:102E700010B522240122035D1343035505F034FDF0
:102E80000422035D1343035505F038FD4068002814
:102E900001D022F0A5FA10BDF8B50B4E0B4F3368E8
:102EA000050001330C003868D900336020F0DEF9EA
:102EB000031E386007D03068054A8218D2009B187C
:102EC0001D605C60F8BDFEE7103600205C1B002032
:102ED000FFFFFF1F10B5002205F05EFA10BDC046CF
:102EE00070B5040082B0150000221E0005F054FAEF
:102EF00000230721200001AA04F05EFF012817D05B
:102F0000002804D100222900200005F035FA002312
:102F10000821200001AA04F04FFF012813D0002847
:102F200004D100223100200005F02EFA02B070BD5D
:102F3000019BAB42E6D100230821200001AA04F046
:102F40003BFF0128EBD1019BB342EAD1EEE7C0463B
:102F50001422835E0B801622835E4B801822835ED0
:102F60008B801A22835ECB807047C046F0B5C64680
:102F700000B5040005F0EAFC051E19D0838AA48A76
:102F8000984602F0BBF9122207000021280004F045
:102F900021F8322206000021280004F01BF84346E5
:102FA0003618A41BE01AC01900B280BCB846F0BDA8
:102FB0001423E05EF9E7C046F0B5C64600B504004C
:102FC00005F0C4FC051E19D0C38AE48A984602F0B5
:102FD0009FF9102207000021280003F0FBFF322296
:102FE00006000021280003F0F5FF43463618A41B15
:102FF000E01AC01900B280BCB846F0BD1623E05EEE
:10300000F9E7C046F8B5CE46474680B5050005F05D
:103010009DFC061E20D0C38AEC8A994602F078F9FE
:10302000102280460021300003F0D4FF3222070036
:103030000021300003F0CEFF4A463F18E31B9B1AE5
:103040004344E98A98B26A8B01328018401A00B270
:10305000C0BCB946B046F8BDE88A0100F3E7C046F7
:10306000038B808A0133181A00B27047438BC08AE1
:103070000133181A00B2704770B512220021040003
:1030800003F0A8FF132205000021200003F0A2FF97
:10309000322206000021200003F09CFF0123AD191D
:1030A0005B1B40001B1A208B1818A38AC01A00B2A1
:1030B00070BDC04670B510220021040003F08AFFE5
:1030C000112205000021200003F084FF32220600B7
:1030D0000021200003F07EFF0123AD195B1B40009F
:1030E0001B1A608B1818E38AC01A00B270BDC04664
:1030F00070B505000C003222002103F06BFF142292
:10310000AB5E414223801622AB5E09B26380182277
:10311000AB5E2000A3801A22AB5E0A00E3801EF0A3
:10312000C3FF28001222002103F054FF238813223A
:103130001B1823802800002103F04CFFA3881022D5
:103140001B1AA3802800002103F044FF638811228A
:103150001B1863802800002103F03CFFE3881B1A42
:10316000E38070BD10B582B0054B01AC22002C216C
:103170000193FDF7E5FC0023E05E02B010BDC04600
:10318000000001E010B582B0054B01AC22002C21FB
:103190000193FDF7D5FC0223E05E02B010BDC046EE
:1031A00001E0000070B501220021040003F012FFCD
:1031B0000422002105B2200003F00CFF0E4A03B2E6
:1031C000954203D00020934200D070BD22250122F9
:1031D000635D20001343635505F086FB0422435DC5
:1031E0001343435505F08AFB4068002801D022F0C4
:1031F000F7F80120E9E7C046D1270000F0B54E46B8
:103200005746DE464546E0B599B081460F001600A8
:103210000E910F92109305F0AFFB002800D15BE1F7
:10322000BBB29B46B3B2DA46002506009B464B462E
:103230009B68AA001B68D458109B002B07D08021E4
:103240002000C902FEF73AFF002800D040E1A38A1F
:1032500020005344A382E38A00275B44E382238B4C
:10326000A84653442383638B5B44638305F084FB4C
:103270000B90002800D12BE1A368BA001B68D55839
:10328000AB8A28005344AB82EB8A5B44EB822B8BE6
:1032900053442B836B8B5B446B8305F06DFB0C906D
:1032A000002800D10EE1002312974746D846D346A6
:1032B00009931194AB68099A1B689200D458A38AA9
:1032C00020005B44A382E38A4344E382238B5B4474
:1032D0002383638B4344638305F04EFB0D900028EA
:1032E00000D1E3E000231396CA463E0008931495EC
:1032F000A368089A1B689200D758BB8A38005B44C1
:10330000BB82FB8A4344FB823B8B5B443B837B8BCE
:1033100043447B8305F030FB0690002800D1BAE0DF
:10332000002355460797C2465F46B046A3461C0099
:10333000079BA2009B681B68D658B38A3000FB1815
:10334000B382F38A5344F382338BFB183383738B3A
:103350005344738305F010FB002800D191E0002353
:1033600000932B003500994606000594AB68009A3F
:103370001B689200D458A38A2000FB18A382E38A1A
:103380005344E382238BFB182383638B534463836F
:1033900005F0F2FA029000286BD000230A9343460E
:1033A00015935B461795CB462500B8463400169317
:1033B000AB680A9A1B689200D758BB8A380043440E
:1033C000BB82FB8A5344FB823B8B43443B837B8B16
:1033D00053447B8305F0D0FA039000283BD00026AD
:1033E000B94637004B469B68BA001B68D658B38A6B
:1033F00030004344B382F38A5344F382338B434413
:103400003383738B5344738305F0B6FA049000281A
:103410001DD000230193B368019A1B689200D05815
:103420000E99838A0F9A43448382C38A5344C3828A
:10343000038B43440383438B534443830023FFF7AD
:10344000DDFE019A531C049A01939A42E3D1039B37
:103450000137BB42C6D10A9B029A01330A939A42B2
:10346000A6D1169BD9469B46159B474626009846F3
:10347000179D009B013300939E4200D076E74D4696
:10348000059C069B0134A34200D051E746465C46AA
:10349000D046BB46AA46089B0D9A013308939A4230
:1034A00000D025E7D1463700149D139E099B0C9A46
:1034B000013309939A4200D0FCE6DA46119CC346D8
:1034C000B846129F0B9B0137BB4200D0D4E645465D
:1034D0000135AE4200D0AAE619B0F0BCBB46B246F8
:1034E000A946A046F0BDC046F0B5C64604000D0092
:1034F0001600984600B5002819D0FFF71FFB434679
:103500000700002B16D102280AD0002E0FD0200071
:1035100005F01CFA041E0AD0FFF710FB0228F6D1B2
:10352000002229002000FFF711FB002EEFD180BC04
:10353000B846F0BD002E07D1022FF8D10122290094
:103540002000FFF703FBF2E7200005F0FFF98046BB
:103550000028F1D0FFF7F2FA0600404605F0F6F930
:10356000012301222900FFF7BFFF022EE4D101222F
:1035700029004046FFF7EAFADEE7C046F0B54546C7
:1035800057464E46DE46E0B51D000B008846DB88F8
:1035900016004A8809881B040400080085B01943F6
:1035A0000191414612041043009089886F460A43F6
:1035B000194302920391002C68D02000FFF7BEFA55
:1035C0008146002D00D0B5E025006F4602280AD0C4
:1035D000002E0FD0280005F0B9F9051E0AD0FFF71C
:1035E000ADFA0228F6D1002239002800FFF7AEFA22
:1035F000002EEFD12000FFF7A1FA250002280BD002
:10360000002E10D0280005F0A1F9051E0BD02800CF
:10361000FFF794FA0228F5D10022280001A9FFF74C
:1036200095FA002EEED12000FFF788FA2500022837
:103630000BD0002E10D0280005F088F9051E0BD005
:103640002800FFF77BFA0228F5D10022280002A902
:10365000FFF77CFA002EEED12000FFF76FFA022868
:1036600004D10022200003A9FFF770FA002E0DD02C
:10367000200005F06BF9041E08D0FFF75FFA02285E
:10368000EFD0200005F062F9041EF6D10C23FA5E9B
:103690000823FC5E0423F85E0023F95E131CA2429B
:1036A00000DD231C1DB2854200DD031C1DB28D42CE
:1036B00000DD0B1C45462B80131CA24200DA231CA4
:1036C0001AB2824200DA031C1AB28A4200DA0B1CD8
:1036D000424693800E23FA5E0A23FC5E0623F85EC0
:1036E0000223F95E131CA24200DD231C1DB2854299
:1036F00000DD031C1DB28D4200DD0B1C45466B80B6
:10370000131CA24200DA231C1AB2824200DA031C04
:103710001AB28A4200DA0B1C42460521D380404689
:1037200005221EF0C1FC05B0F0BCBB46B246A9465E
:10373000A046F0BD002E08D1022800D1A0E0200054
:10374000FFF7FCF96F468346A7E0200005F0FEF87E
:103750008246002800D1C0E0FFF7F0F96F4605006F
:10376000504605F0F3F8012301223900FFF7BCFEB3
:10377000022D00D1ABE04B46022B00D181E02000AE
:10378000FFF7DCF98346200005F0E0F881460028C9
:103790005ED0FFF7D3F90500484605F0D7F801AB36
:1037A0009A46012201235146FFF79EFE022D7CD04E
:1037B0005B46022B51D02000FFF7C0F98346200062
:1037C00005F0C4F88146002831D0FFF7B7F90500AD
:1037D000484605F0BBF802AB9A4601220123514648
:1037E000FFF782FE022D66D05B46022B24D020001C
:1037F000FFF7A4F98146200005F0A8F8061E0CD0BA
:10380000FFF79CF90500300005F0A0F80123012224
:1038100003A9FFF769FE022D53D04B46022B00D0BF
:1038200034E70122200003A9FFF790F92EE75B4659
:10383000022BDCD102AB9A46012251462000FFF751
:1038400085F92000FFF77AF98146002EE5D0D2E70E
:103850005B46022BAFD101AB9A46012251462000B4
:10386000FFF774F92000FFF769F98346002EA6D10F
:103870005B46022BDED02000FFF760F98146CCE7E3
:103880006F46012239002000FFF760F92000FFF7A2
:1038900055F98346002E00D075E75B46022BDAD03F
:1038A0002000FFF74BF98346E2E7012251464846E4
:1038B000FFF74CF97CE7012251464846FFF746F9ED
:1038C00092E70122300003A9FFF740F9A5E70122A2
:1038D00039005046FFF73AF94DE74B46022BCFD05F
:1038E0002000FFF72BF96F4683464CE7F0B50E003A
:1038F00083B001210400FEF7E1FB002802D0002084
:1039000003B0F0BD200004F0EFFF050004F0F6FF67
:103910000700FCF745FE85420ED03800FCF74CFE50
:10392000854209D03800FCF753FE854204D03800A8
:10393000FCF75AFE8542E2D1802120000903FEF700
:10394000C5FB00281CD12000FFF7F0F8A28A81B245
:10395000E38A521A5B1A12041B04120C1A43238BBB
:10396000608BCB181B04091809041B0C0B43009235
:1039700031006A46300001931EF0B6FB0028BED02D
:103980002000002301223100FFF7F8FD200004F0A1
:10399000DDFF6D46041E1FD125E0802120000903B4
:1039A000FEF794FB002812D123002A00143303CB26
:1039B00003C20122290020000023FFF7DFFD2A00B7
:1039C000310030001EF090FB002800D197E7200066
:1039D00004F0BCFF041E06D001212000FEF76EFBA0
:1039E0000028DAD08BE701208AE7C04630B583B0E3
:1039F0000C00050004F082FFFCF7B6FF002801D19F
:103A000003B030BD6288238812041A43E388A1887A
:103A10001B040B432800694600920193FFF766FFE1
:103A20000028EDD0280004F069FF694605F0E6FEA5
:103A3000E6E7C046F0B5CE46474680B5040083B001
:103A4000FFF774F81423E75E1622A35E050099467B
:103A50001823E65E1A22A35E2000984604F04EFF6B
:103A6000FCF782FF002804D103B0C0BCB946B046C1
:103A7000F0BD4B46A8B23F1A86191B1A3F044044BA
:103A8000360400041B043F0C360C06431F436946F2
:103A9000200000970196FFF729FF0028E4D02000BE
:103AA00004F02CFF694605F0A9FEDDE7F0B54546B8
:103AB0004E46DE465746E0B543680400984687B058
:103AC0008EB295B2002B26D012220021180003F0EE
:103AD00081FA002107001022404603F07BFA802182
:103AE0008146C9022000FEF7E9FA002800D199E0DA
:103AF0004346F7199E8A4D44F619DF8AB6B27F19FC
:103B0000BDB232220021404603F064FA80B2861929
:103B10004519B6B2ADB2A38AF61AE38AB6B2ED1A67
:103B20003300ADB22B4372D02000FFF783FFA369AF
:103B300099461623E15E1823E25E1423E05E1A27FD
:103B4000E35F676902974F4603970027019747464F
:103B5000002F14D0404604A9FFF7CAFA002204A996
:103B600002A81EF01FFD0190002800D172E014236E
:103B7000E05E1623E15E1823E25E1A27E35F301849
:103B80006918B218EB18A082E182200022836383B7
:103B900004F0F2FE002821D033B29A462BB29946A7
:103BA0002300002704009B465B469B68BA001B6805
:103BB0005146D0580137838A4A46F3188382C38A14
:103BC000EB18C382038BF3180383438BEB184383F7
:103BD0000023FFF713FBBC42E6D15C464346002BB3
:103BE0001CD0220022214046FCF7AAFF2000FFF74C
:103BF00021FF20000022143004A91EF0D3FC019BF9
:103C0000002B01D1002802D0404602F03FFE07B051
:103C1000F0BCBB46B246A946A046F0BD2000FFF767
:103C200009FFF4E7434614229B5E40463FB2DF198A
:103C300001F064FB43463F1AF6191627DF5F4B4637
:103C400040461BB2FF1801F063FB3F1AED19B6B2F4
:103C5000ADB256E7404602F019FE88E7F0B5DE4601
:103C600057464E464546E0B5C7498BB00400FEF7BF
:103C70002DFA002800D1C7E0200004F067FE0722DB
:103C800000210500200003F0A5F90822814600214B
:103C900007B2200003F09EF903B280460093002D86
:103CA00000D13EE112220021280003F093F91322F3
:103CB00006000021280003F08DF9322282460021FF
:103CC000280003F087F93300012653442A8BF31AA6
:103CD00040001B1A9B18AA8A00219B1A9AB20892CC
:103CE0001BB210222800049303F074F911228246BB
:103CF0000021280003F06EF93222834600212800BB
:103D000003F068F953465B44F61A40006B8B361A91
:103D1000F618EB8A4A46F61AB3B2079333B2039306
:103D2000C023DB011A40130080229201934200D18C
:103D300077E0C0234246DB011A4013008022920143
:103D4000934200D1D8E06B220021200003F042F919
:103D50006C2203B28046002120009A4603F03AF913
:103D6000A28A03B205929946238B060001339BB2C7
:103D700009939B1A1BB20193E28A0692638B01336B
:103D80009BB29B469B1A1BB20293C0234246DB01A7
:103D9000134080229201934200D198E0C023DB01BE
:103DA0001E4080239B019E4200D17BE0009B0021AE
:103DB0004B449AB291461BB209222000984603F068
:103DC00009F95744C0B2BEB23FB2002807D001285B
:103DD0000ED009280CD86D4B80001B589F46162228
:103DE0000021280003F0F6F8C0B2012800D19EE0BF
:103DF000424639002000FFF759FE0BB0F0BCBB462D
:103E0000B246A946A046F0BD200004F09FFD002860
:103E100000D131E70A22002103F0DCF80004ECD1E4
:103E20002AE7FA235A48DB003840984200DD80E751
:103E3000FA239B00984200DD181A049B6421584322
:103E40002FF0BCF807B274E7049A01999446D30F97
:103E500063448C46CA0F62445B1052109B1AF618DA
:103E600037B2039A02999446D30F63448C46CA0F23
:103E700062445B1052109B1A4B441BB29846B7E742
:103E8000059B099A9F1A089B9C466744F7193FB205
:103E90005A46069B9B1A079A944663444B441BB2AE
:103EA0009846A5E74B463A481840FA23DB0098426B
:103EB00000DD7BE7FA239B00984200DD181A029B85
:103EC000642158432FF07AF803B299466EE75346BF
:103ED0002F481840FA23DB00984200DD5EE7FA2302
:103EE0009B00984200DD181A019B642158432FF073
:103EF00065F803B29A4651E7009B25481840FA231B
:103F0000DB00984200DD1EE7FA239B00984200DDAB
:103F1000181A039B642158432FF050F803B2009302
:103F200011E71A0039002000FFF7C0FD65E7059B87
:103F3000099A9F1A089B9C466744F7193FB257E7B6
:103F4000049B019A9C46DF0F67449446D30F634459
:103F50007F105B10FF1AF7193FB249E7099A059BDA
:103F60009B1A089A94466344F3181FB279E7049B9E
:103F7000019A9C46DF0F67449446D30F63447F1039
:103F80005B10FF1A82E7C046010006006874031048
:103F9000FF9FFFFFF0B54E46DE4657464546E0B56B
:103FA00023260C23825D04008DB013400C2B00D11E
:103FB00082E004F0CBFC051E00D17DE0200001F082
:103FC00083FEA35D00901B0700D47DE0268BA38AAF
:103FD0000136F61A002320009B4601F0A3F92323A3
:103FE000E35C070036B25B0700D4EEE0638BE28A45
:103FF00001339B1A1BB298465B46002B00D06EE142
:10400000238BA28A01339B1A1BB29E4206D1638B7B
:10401000E28A01339B1A1BB298454DD02000FFF76E
:1040200009FDA38A08AA1380E38A28005380238B02
:104030000AA99380638BD380FFF75AF800220AA95C
:1040400008A81EF0AFFA071E00D154E1E38A162239
:10405000013B434400212000638302F0BBFFC0B258
:10406000B6B2012800D141E1A38A013BF6182683AC
:10407000292108AA2000FCF763FD22002221280044
:10408000FCF75EFD2000FFF7D5FC22220221200074
:10409000A35C14300B43A3540AA900221EF082FA39
:1040A000002F01D1002802D0280002F0EFFB2000F1
:1040B000FEF706FD012000E000200DB0F0BCBB467D
:1040C000B246A946A046F0BD01220021200002F020
:1040D00081FFD64B07B2FB185A425341DBB29B46D5
:1040E000C023DB011840802300269B01984206D1A3
:1040F000FA22CF4BD2003B40D90F9A424E411222B6
:104100000021280002F066FF1322804600212800CB
:1041100002F060FF322281460021280002F05AFF9F
:10412000424601234A449B1A40002A8B1B1A9B18C3
:10413000AA8A9B1A1BB29A46BE4B98469F4200D150
:1041400007E2002E11D02323EB5C1B0700D44BE1C8
:10415000FA23B7489B003840984200DD1EE15346E1
:10416000642158432EF02AFF07B2022200212000CA
:1041700002F030FF032206B20021200002F02AFFE5
:1041800003B29846C0238022DB0192013340934260
:1041900000D1EEE0C02380224146DB0192010B40BA
:1041A000934200D1D1E03B1C474500DD43461AB2A3
:1041B000B24200DA331C20001EB201F0B3F8232310
:1041C000E35C07005B0700D510E704220021200014
:1041D00002F000FF03B29846944B43445A425341C5
:1041E000DBB20193C023DB010022184080239246FA
:1041F0009B01984209D142468D4B50461340FA220A
:10420000D90FD2009A42484182461022002128004C
:1042100002F0E0FE112281460021280002F0DAFEC1
:10422000322202900021280002F0D4FE0123029ADB
:1042300040004A449B1A6A8B1B1A9B18EA8A9B1AF5
:104240001BB202937B4B9946984500D1F4E053464C
:10425000002B14D02323EB5C5B0700D4A0E0434683
:10426000734803401800FA239B00984200DD93E056
:10427000029B642158432EF0A1FE03B2984605220A
:104280000021200002F0A6FE062203B20021200039
:10429000994602F09FFE03B29A46C0238022494607
:1042A000DB0192010B4093423CD0C0238022514657
:1042B000DB0192010B40934221D04346D04500DD03
:1042C00053461AB24A4500DA4B461BB298465B4643
:1042D000019A13439B465B46002B00D190E60023D6
:1042E0003A002000009902F025FA89E6238B013379
:1042F0009B1BA382BCE6280002F0C8FAA6E6FA23BC
:104300004B48DB0008409842D7DCFA239B009842D8
:1043100000DD181A029B642158432EF04FFE03B2B1
:104320009A46CAE7FA234248DB0008409842BCDCC0
:10433000FA239B00984200DD181A029B642158431F
:104340002EF03CFE03B29946AFE7FA233848DB0073
:104350000840984200DD26E7FA239B00984200DDE2
:10436000181A5346642158432EF028FE03B298468B
:1043700019E7FA232E48DB003040984200DD09E7B8
:10438000FA239B00984200DD181A534664215843D3
:104390002EF014FE06B2FDE6181A69E7181ADEE6DA
:1043A00004220021280002F015FE00B2484500D08A
:1043B00055E732220021200002F00CFE1022814637
:1043C0000021200002F006FE484483B211220021A1
:1043D0002000984602F0FEFD4A4603B212B29B1836
:1043E00043441BB298464AE701220021280002F00C
:1043F000F1FD00B2404500D0AAE6322200212000A3
:1044000002F0E8FD122206000021200002F0E2FD89
:10441000132287190021200002F0DCFD36B203B21E
:10442000BFB29B19FF183FB29FE6C0462FD8FFFFCF
:10443000FF9FFFFFD127000000220021200002F093
:10444000C9F932220021200002F0C4FD804610226A
:104450000021200002F0BEFD43469BB29846404436
:1044600002B283B20021079220001122049302F0CD
:10447000B1FD404482B20AA88046D34B2C2103925E
:10448000020020000A93FCF75BFB039940468C4630
:10449000049B0222825E63449B181BB22000984654
:1044A00004F06AFA002800D1E9E6C84B06969A465D
:1044B000002399465B464E46BB4681465746AA4670
:1044C00025000593AB68B2001B68C149D458200091
:1044D000FDF7FCFD002823D12000BE49FDF7F6FDC5
:1044E00000280AD1200004F031FA002805D00A2261
:1044F000002102F06FFD000408D1092200212000F4
:1045000002F068FDFC23034200D0BAE01A22A35E49
:1045100016216A5E9B1A0133BB4200DA3B001FB2D0
:104520000136B145CED12C005546BA46059B5F46B3
:104530009B46A64B069E9A4500D1A0E6039B53449A
:104540009BB21A1C1BB2434500DA424613B298468E
:1045500095E600220021200002F020F932220021FD
:10456000200002F037FD132206000021200002F097
:1045700031FDB6B2301887B2122200212000029716
:1045800002F028FD3618B3B201930AAE924B2C21EB
:10459000320020000A93FCF7D3FA019A0021735EDF
:1045A000944620006744FF1804F0E6F9162281467D
:1045B0000021200002F00EFDC0B24B463FB20128A0
:1045C00079D0002B00D1D0E56B4604229B5E0026FB
:1045D00004937E4B98465B4603934346AB46B846EE
:1045E00025001F00AB68B2001B687949D458200031
:1045F000FDF76CFD002829D120007649FDF766FD06
:1046000000280AD1200004F0A1F9002805D00A22D0
:10461000002102F0DFFC00040ED10922002120005D
:1046200002F0D8FCFF231840072800D999E06C3B22
:10463000C340DB0700D494E01822A35E14216A5E15
:104640009B1A0133BB4200DA3B001FB20136B14571
:10465000C8D13A00039B2C005D469B465B4B474606
:1046600090469A4200D180E5029B43441BB2574AD0
:10467000934200D179E53A1C9F4200DA1A1C17B226
:1046800073E508220021200002F0A4FC00B20028FB
:1046900000D045E70799638B8C46E28A01339B1A69
:1046A0009AB21BB263449F4200DD39E7049B9C46EB
:1046B000624417B234E7002B00D156E56B4608225E
:1046C0009B5E00260493414B98465B46039343460A
:1046D000AB46B84625001F00AB68B2001B683C49DA
:1046E000D4582000FDF7F2FC002828D120003949D9
:1046F000FDF7ECFC00280AD1200004F027F900287F
:1047000005D00A22002102F065FC00040DD1092227
:104710000021200002F05EFCFF23184008283AD850
:104720004A23FF33C340DB0735D51822AB5E142183
:10473000625E9B1A0133BB4200DA3B001FB20136B6
:10474000B145C9D13A00039B2C005D469B461F4BE7
:10475000474690469A4200D107E5019B43441BB26D
:1047600085E708220021200002F034FC00B2002876
:1047700000D06BE70499238B8C46A28A01339B1AE5
:104780009AB21BB263449F4200DD5FE7019B9C46E7
:10479000624417B25AE707220021200002F01AFCF7
:1047A00000B20028CBD10499238B8C46A28A013316
:1047B0009B1A9AB21BB263449F42C0DC029B9C4688
:1047C000624417B2BBE7C04601E0000001E0FFFF12
:1047D0000100040001000600000001E070B50500C2
:1047E00004F0CAF8061E1BD00024AB68A2001B68A8
:1047F0000134D058FFF7F2FFA642F6D1222401225D
:104800002B5D1A421BD102221A4200D170BD222117
:104810006B5C280093436B54002102F079F8F5E7B4
:10482000222401222B5D1A42EDD093432B55280000
:10483000FFF7B0FB2800FFF711FA2B5DE3E7934386
:104840002B552800FFF7A6FB2800FFF707FA0A22DE
:104850000021280002F0BEFB0004030C002810D049
:10486000094A12689A420CD30849094A8C461268D0
:104870006344DB00D318596828001B6898472B5DF8
:10488000C1E72223EB5CBEE710360020FFFFFF1FCD
:104890005C1B0020F0B54546DE4657464E46E0B567
:1048A00087B0019310AB914600229B5E80469A46EA
:1048B000CB4B0D009B461B78002B00D195E0002DC3
:1048C00000D1ADE0404604F041F83222002107005B
:1048D00002F080FB122204000021380002F07AFB73
:1048E000A4B2201803B2102200213800009302F075
:1048F00071FB241823B23222002128009B4602F0CB
:1049000069FB122204000021280002F063FBA4B21C
:10491000261810220021280002F05CFB4B462418C8
:10492000B6B2A4B2002B06D0152B00D988E2AD4A4E
:104930009B00D3589F4616220021280002F04AFB14
:10494000C0B2012800D189E016220021380002F00F
:1049500041FB1422AB5E019AC0B2944614217A5EE8
:1049600063449B1A994601286ED0380001F0ACF9D7
:10497000009B4844C01A361836B21623ED5E162244
:10498000BB5E38005544ED1A00F0CCFC5B46401984
:10499000C01A002201212418404603F0FDFC002328
:1049A0000721404605AA24B203F006FA01283CD0AC
:1049B000002804D100223100404603F0DDFC002332
:1049C0000821404605AA03F0F7F9012838D000284D
:1049D00004D100222100404603F0D6FC07B0F0BC11
:1049E000BB46B246A946A046F0BD5A4601331370F5
:1049F00003F07AFF2223C35C0400222604275B070E
:104A000008D5A35D2000BB43A355FFF7E7FEA35DD8
:104A10001F42F6D100235A461370002D00D051E7F3
:104A2000404603F093FF05004CE7059BB342C1D11C
:104A300000230821404605AA03F0BEF90128C6D18B
:104A4000059BA342C5D1C9E7380001F053F9030023
:104A5000009A4B449B1AF61836B28EE712220021B8
:104A6000280002F0B7FA132281460021280002F044
:104A7000B1FA322202900021280002F0ABFA4B4634
:104A8000029AF31A9B1A42464000928A1B1A9B18FC
:104A90004246128B9B1A2A8B9B18AA8A9B1A9EB29B
:104AA00052E712220021280002F094FA132200217A
:104AB0000290280002F08EFA32228146002128005E
:104AC00002F088FA0123029A40004A449B1A2A8B7A
:104AD0001B1A9B18AA8A41469B1A1BB2DA0FD218DE
:104AE00043461B8B898A01335B1A1BB2D90FCB1843
:104AF0005B10F31A5210D21896B21022002128002F
:104B000002F068FA112200210290280002F062FAF5
:104B1000814632220021280002F05CFA4A46029BBC
:104B20004000E31A9B1A4246D28A1B1A9B1842463F
:104B3000528B9B1A6A8B9B18EA8A9B1A9CB203E7DA
:104B400012220021280002F045FA132200210290CF
:104B5000280002F03FFA814632220021280002F0AC
:104B600039FA4A46029B4000F31A9B1A4246928A3F
:104B70001B1A9B184246128B9B1A2A8B9B18AA8AD7
:104B80009B1A9EB210220021280002F023FA112263
:104B900000210290280002F01DFA322281460021F5
:104BA000280002F017FA0123029A4A449B1A6A8BE2
:104BB00040001B1A9B18EA8A41469B1A1BB2DA0F67
:104BC000D21843465B8BC98A01335B1A1BB2D90FDB
:104BD000CB185B10E31A5210D21894B2B4E6C04658
:104BE000DEF80020907403102E8BAB8A0136F61A83
:104BF0006B8BEA8A01339B1A1BB2DC0FE418434625
:104C000042465B8BD28A01339B1A1BB2DA0FD31850
:104C100064105B10E41AB6B2A4B295E64346DC8A8F
:104C20005B8B013CE41A0026A4B28DE6122200211F
:104C3000280002F0CFF9132200210290280002F090
:104C4000C9F9322281460021280002F0C3F901226D
:104C5000029B40004B4491464A46D31A2A8B1B1AAA
:104C60009B18AA8A41469B1A1BB2DA0FD2184346F8
:104C70001B8B898A01335B1A1BB2D90FCB185B10CF
:104C8000F31A5210D2180021280096B2102202F016
:104C9000A1F9112200210290280002F09BF9322292
:104CA00003900021280002F095F9039A029B944694
:104CB0004A466344D31A7AE72E8BAB8A0136F61A3A
:104CC0000024B6B240E643469E8A1B8B013EF61A8C
:104CD0004346DC8A5B8BB6B2E41A6B8BE418EB8A32
:104CE000E41AA4B230E643469E8A1B8B013E7EE75F
:104CF00043469E8A1B8B013EF61A0024B6B223E679
:104D000043469E8A1B8BF61A2B8BF618AB8A6C8B4C
:104D1000F61AEB8A0134E41AB6B2A4B214E61222EF
:104D20000021280002F056F91322002102902800E9
:104D300002F050F9814632220021280002F04AF99F
:104D40004A46029B4000F31A9B1A4246928A1B1A5B
:104D50009B184246128B9B1A2A8B9B18AA8A9B1A75
:104D60009EB2CAE612220021280002F033F9132273
:104D700000210290280002F02DF932228146002104
:104D8000280002F027F90123029A40004A449B1AA6
:104D90002A8B1B1A9B18AA8A41469B1A1BB2DA0F50
:104DA000D21843461B8B898A01335B1A1BB2D90F79
:104DB000CB185B10F31A5210D21896B2C4E52B8BA5
:104DC000AA8A01339B1A1BB2DE0FF61843464246ED
:104DD0001B8B928A01339B1A1BB2DA0FD318761001
:104DE0005B10F61A4346DC8A5B8B013CE41AB6B2D0
:104DF000A4B2A9E52B8BAA8A01339B1A1BB2DE0F42
:104E0000F618434642461B8B928A01339B1A1BB20B
:104E1000DA0FD31876105B1079E76C8BEB8A0134CC
:104E2000E41A0026A4B28FE543469E8A1B8BF61A2D
:104E30002B8BF618AB8AD4E72E8BAB8A013646E76C
:104E40000024260080E5C046F8B55746DE464E46AB
:104E500045463A4BE0B59A461B78002B05D0F0BC8E
:104E6000BB46B246A946A046F8BD52460133137070
:104E700003F03AFD01230500222799469B460422B0
:104E80009046EB5D424641461A40194230D04246B8
:104E9000EB5D28009343EB5503F06EFD061E18D022
:104EA0000024AB68A2001B680134D058FFF796FCC1
:104EB000A642F6D14A46EB5D1A421CD102221A42A2
:104EC000E0D0EB5D002193432800EB5501F020FD7D
:104ED000D5E74A46EB5D1A42F0D04A469343EB557C
:104EE0002800FFF757F82800FEF7B8FEEB5DE5E76E
:104EF00053461A70B3E75A469343EB552800FFF721
:104F000049F82800FEF7AAFE0A220021280002F034
:104F100061F80004030C00280ED0094A126893427D
:104F20000AD80849084A8C4612686344DB00D31843
:104F3000596828001B689847EB5DBFE7DEF8002042
:104F400010360020FFFFFF1F5C1B002010B504007F
:104F500082B0FDF7EBFDA18AE28A83B2C91AD21AA8
:104F600009041204090C1143228B608B9A18120455
:104F70001B18120C1B041343009120006946019377
:104F8000FEF7B4FC02B010BD70B504000D00FDF7D3
:104F9000ABF8A3689D8270BD70B51423C55E0D800B
:104FA0001623C25E4A801823C45E8C801A23C65E14
:104FB0008368CE80002B08D09B8AED1A1C19D21A68
:104FC0009B190D808C804A80CB8070BD10B500226B
:104FD0000A210068FBF7B4FD10BDC046F8B5DE46F7
:104FE0004E46454657461322E0B50021060001F023
:104FF000F1FF122200218246300001F0EBFF322245
:1050000000218146300001F0E5FF8046300003F0CA
:10501000B3FC051E47D00024264FB368A2001B68CE
:105020002549D35818009B46FDF750F8002807D1B2
:105030005B469B8A1A1C1BB2BB4200DD3A1C17B2AE
:105040000134A542E9D14B469BB2994643469DB2F5
:10505000184B9F4225D04B465C19B38AE418E41BD9
:1050600024B23000FEF77EF807003000FDF7F8FFAD
:105070004B466D005344EB18DB19B2681B1A9BB208
:10508000002A02D0128A9B1A9BB2181C1BB2A342A0
:1050900000DA201C00B2F0BCBB46B246A946A046CE
:1050A000F8BD064CDDE743469DB24B469BB29946A0
:1050B000024CD6E7FF1F00000100040001E0FFFFE3
:1050C000F8B5CE46474680B5060003F055FC80464D
:1050D000002850D00024324FB368A2001B68314929
:1050E000D5582800FCF7F2FF002806D12B8B1A1C9C
:1050F0001BB2BB4200DA3A1C17B20134A045EBD117
:1051000013220021300001F065FF1222002105006A
:10511000300001F05FFF322281460021300001F0B3
:1051200059FF1F4B9F4223D0328BADB284B22B1953
:105130009B1ADF193FB23000FEF714F880463000AA
:10514000FDF78EFF63004B44EB184344B2681B1A13
:105150009BB2002A02D0128A9B189BB2181C1BB269
:10516000BB4200DA381C00B2C0BCB946B046F8BD3C
:1051700084B2ADB2DFE713220021300001F02AFF34
:10518000122205000021300001F024FF3222814666
:105190000021300001F01EFF014F84B2ADB2CAE71A
:1051A00001E0FFFF01000400836870B50500002BDB
:1051B00020D01B8A5B429BB259180CB28EB2002CD5
:1051C00000D170BD2800FCF78FFFAB6821001A8A60
:1051D0002800B6181E8200220123FEF70FF80022D5
:1051E0000B212800FBF7ACFC0128EAD12800FEF7D0
:1051F00021FCE6E70023DFE7836870B50500002B9C
:1052000020D05B8A5B429BB259180CB28EB2002C44
:1052100000D170BD2800FCF767FFAB6800215A8AF7
:105220002800B6185E8222000123FDF7E7FF002266
:105230000B212800FBF784FC0128EAD12800FEF7A7
:10524000F9FBE6E70023DFE770B505000C00FCF78B
:105250004BFFA9680B7E9A07920FA24207D0032248
:1052600014409343234328000B76FEF7E3FB70BD05
:1052700070B505000C00FCF737FFA9684B7E1A07D4
:10528000120FA24204D00F221440934323434B76C3
:1052900070BDC04670B504000D00FCF725FF032368
:1052A0000C20A2682B40117E9B008143194311768C
:1052B00070BDC04670B504000D00FCF715FF032358
:1052C0003020A2682B40117E1B01814319431176C7
:1052D00070BDC0468368002B03D0187E8007800F06
:1052E00070470320FCE7C0468368002B03D0587E3C
:1052F0000007000F70470F20FCE7C0468368002BB3
:1053000003D0188A404200B270470020FCE7C04634
:105310008368002B03D0588A404200B270470020B7
:10532000FCE7C0468368002B03D0588A404200B295
:1053300070470020FCE7C046F8B5CE46474680B52A
:10534000060003F019FB8046002850D00024324F9D
:10535000B368A2001B683149D5582800FCF7B6FE97
:10536000002806D16B8B1A1C1BB2BB4200DA3A1C18
:1053700017B20134A045EBD110220021300001F01A
:1053800029FE112200218146300001F023FE322245
:1053900005000021300001F01DFE1F4B9F4223D06D
:1053A000728BADB284B22B199B1ADF193FB2300059
:1053B000FDF7E8FE80463000FDF758FE63004B44E1
:1053C000EB184344B2681B1A9BB2002A02D0528ADF
:1053D0009B189BB2181C1BB2BB4200DA381C00B2EF
:1053E000C0BCB946B046F8BD84B2ADB2DFE710220A
:1053F0000021300001F0EEFD112200218146300035
:1054000001F0E8FD322205000021300001F0E2FD4C
:10541000014F84B2ADB2CAE701E0FFFF0100040012
:10542000F0B54546DE4657464E46E0B5836891B036
:10543000040015000191002B00D10DE21B7E9B079B
:105440009F0F002B52D000201CF0DAFA0600022F2A
:105450000CD1002805D149E030001CF0D1FA061E1D
:1054600044D03000FBF71CFF8442F5D1A368002B29
:1054700000D1FAE15B8A5B429AB21BB29146984630
:105480002000FFF759FF162202900021200001F0B2
:10549000A1FDC0B2012800D1EBE1A368002B51D0DF
:1054A0001B8A5B421BB2039316220021200001F0ED
:1054B00091FDC0B2012820D1A368002B00D1E8E102
:1054C00010215A5E04925B7E1B071B0F032B27D80B
:1054D000002B0BD0012F00D1BAE1032F00D1B4E192
:1054E0003000FBF7CDFE032800D1B1E111B0F0BCD4
:1054F000BB46B246A946A046F0BD2000FFF7E0FD3E
:10550000A3680490002BDED1012F00D121E3032FEB
:1055100000D138E33000FBF7B3FE0C28E0D1C5E141
:1055200003221A409346012F13D0032F00D15EE2CD
:105530003000FBF7A5FE5B460C2800D1BFE3002B33
:10554000D4D0CDE700230393AEE703239B4600238B
:1055500004935F4601237A1E97419B46FFB2802148
:1055600016224902200001F035FD8021C3B210222D
:10557000490220000A9301F02DFD8021112207909D
:105580004902200001F026FD8021122205904902E7
:10559000200001F01FFD802113220B904902200002
:1055A00001F018FD8021012249020890200001F03D
:1055B00011FD06B280462000FDF758FD824620000E
:1055C000FDF74EFD5B4680215B4233400690099318
:1055D00021227B42200049021E4001F0FBFCC0B2A8
:1055E000012800D84AE15B46002B00D17DE05346FC
:1055F0009AB2029B0C924B449BB299464A4411B218
:10560000002972D01622A35E6B801A22A35EEB8063
:10561000434698B20A9B012B00D1F4E1089A238BF0
:105620009B1A9AB2121A01321BB212B2AB806B46AD
:105630002A801C229B5E6A461420125E50460E93FE
:10564000C31A9B1A981B534658430F922DF0B6FC71
:1056500003B2824600209B461CF0AAF983001B1867
:105660005B000120EF2B00DDEEE1834500DCD3E1A0
:1056700053469BB29A466B469B8BB0B29B466B4699
:10568000998A0D900791E38A5B449AB24B461BB20C
:10569000002B00DCA4E10B000C995B44CB1A0D99A4
:1056A0005B1A51465B1A9BB29A1818B2029B494684
:1056B000434318000C922DF081FC53460C9A013B99
:1056C000101A02B2C01800B26A80E8801623E15EA8
:1056D0000E9BCB189A4200DA37E11A22A35E0F9A8A
:1056E0009E1BB61A864200DA0BE1002F00D1FDE6C0
:1056F0006B461D8B049BE918039B9C4661448FB24B
:1057000009B2002900D1F1E64046638B059A9B1A45
:10571000019A9BB2D3801B1A013353801420235E5D
:1057200013801820235E93806B462C229B5E994643
:105730006B4620229B5E069A9B464B465846D31AE0
:105740001B1A0998181A50432DF038FC03B20600B2
:10575000002098461CF02CF983001B185B000120E8
:10576000EF2B00DD91E1804500DC78E1B6B26B46BD
:105770009B8D98466B461B8C02936B469B8C9A467E
:105780007B1B99B21BB2A78A002B00DC98E0524623
:10579000029B47444344EB1A9B1A9B1B18B29DB2D1
:1057A000049B013E434318002DF008FC0A9A2B1A73
:1057B0009BB2BFB2B6B2012A00D171E1DB190199E7
:1057C0001AB29B191BB20A808B801421655E494670
:1057D00069188A4200DADDE01A0059461823E45EAF
:1057E000099BE31A5B1A934200DB7FE6029B0020D1
:1057F000E41A5346E41A019B24B29C801CF0D8F8AA
:1058000083001B185B000120EF2B00DDF4E1019BFE
:10581000241A00229B5E9C4200DB67E6019B00206D
:105820009C881CF0C5F883001B185B000120EF2B3F
:1058300000DD2DE2019B241A1C8057E6029B002B01
:1058400000DDD8E0002A00D150E6039B002B46DDA6
:10585000002301279B4682E600201CF0D1F8A368B4
:1058600006000327002B00D004E600239946984643
:1058700006E62000FFF7B2FB039015E680213122F7
:105880002000490201F0A6FBC0B2012800D9AAE617
:105890002CE6012F00D158E6032F24D03000FBF76F
:1058A000EFFC002304930C2800D019E63000FBF72E
:1058B000E7FCC31E5A425341DFB201239B464EE62A
:1058C0000A9B012B00D130E1019A47441780238BBA
:1058D00002995B1A5146013B5B1A938006E6049BD2
:1058E000002BB5DC02E6002304934346002B00DCCA
:1058F00026E1039B002B00DCA1E1012301279B464D
:105900002DE6079A00209B1A0D9A9B1A1EB2EE8074
:105910001CF04EF883001B185B000120EF2B00DD0C
:105920001AE10222AB5E361A9E4200DBDDE6002061
:10593000EE881CF03DF883001B185B000120EF2B64
:1059400000DD70E1361A6E80CFE659440BB26B80F1
:10595000002099461CF02CF883001B1801225B00E4
:10596000EF2B00DD03E10623E85E13004B44834286
:1059700000DCB2E66B88002099461CF019F8830021
:105980001B185B000120EF2B00DD40E1484400B212
:10599000E880A2E6019B45442DB21D8000201CF04A
:1059A00007F883001B185B000120EF2B00DD18E1D6
:1059B000019B2D1804229A5E954200DC0DE7019BA5
:1059C00000201D881BF0F4FF83001B185B000120E2
:1059D000EF2B00DD50E1019A2B181BB29380FBE600
:1059E0006A80638B5B1A013B1B1AEB807DE64346A2
:1059F000002B00DC22E75B46002B00D079E7012377
:105A000000279B46ABE50B9AA38A94460138634472
:105A10001AB21B181BB209E600201BF0C9FF0122B5
:105A200083001B1892465B00EF2B00DC23E600206E
:105A30001BF0BEFF830018184000A02150302DF04D
:105A4000BDFA83B29A4616E600201BF0B1FF830030
:105A500018184000A02150302DF0B0FA05E60020C3
:105A60001BF0A6FF83001B1801265B00EF2B00DC58
:105A70007DE600201BF09CFF830018184000A02149
:105A800050302DF09BFA86B271E600201BF090FF9B
:105A9000830018184000A02150302DF08FFA62E6E4
:105AA0005744DF19019A3BB2BF193FB21380978068
:105AB00009981422A15E4A4684468A186244934299
:105AC0006ADB1822A35E5A469A1ABA4200DB0DE539
:105AD000029A00209B1A1CB2019B9C801BF068FF5D
